{
  "contractName": "DearMonsterTrading",
  "abi": [
    {
      "inputs": [
        {
          "internalType": "address",
          "name": "_nftAddress",
          "type": "address"
        },
        {
          "internalType": "address",
          "name": "_tokenAddress",
          "type": "address"
        },
        {
          "internalType": "address",
          "name": "_adminAddress",
          "type": "address"
        }
      ],
      "stateMutability": "nonpayable",
      "type": "constructor"
    },
    {
      "anonymous": false,
      "inputs": [
        {
          "indexed": true,
          "internalType": "address",
          "name": "previousOwner",
          "type": "address"
        },
        {
          "indexed": true,
          "internalType": "address",
          "name": "newOwner",
          "type": "address"
        }
      ],
      "name": "OwnershipTransferred",
      "type": "event"
    },
    {
      "inputs": [
        {
          "internalType": "address",
          "name": "",
          "type": "address"
        }
      ],
      "name": "availableTokens",
      "outputs": [
        {
          "internalType": "uint256",
          "name": "",
          "type": "uint256"
        }
      ],
      "stateMutability": "view",
      "type": "function"
    },
    {
      "inputs": [],
      "name": "owner",
      "outputs": [
        {
          "internalType": "address",
          "name": "",
          "type": "address"
        }
      ],
      "stateMutability": "view",
      "type": "function"
    },
    {
      "inputs": [],
      "name": "renounceOwnership",
      "outputs": [],
      "stateMutability": "nonpayable",
      "type": "function"
    },
    {
      "inputs": [
        {
          "internalType": "uint256",
          "name": "",
          "type": "uint256"
        }
      ],
      "name": "tokenOwners",
      "outputs": [
        {
          "internalType": "address",
          "name": "",
          "type": "address"
        }
      ],
      "stateMutability": "view",
      "type": "function"
    },
    {
      "inputs": [
        {
          "internalType": "uint256",
          "name": "",
          "type": "uint256"
        }
      ],
      "name": "tokenPrices",
      "outputs": [
        {
          "internalType": "uint256",
          "name": "",
          "type": "uint256"
        }
      ],
      "stateMutability": "view",
      "type": "function"
    },
    {
      "inputs": [
        {
          "internalType": "address",
          "name": "newOwner",
          "type": "address"
        }
      ],
      "name": "transferOwnership",
      "outputs": [],
      "stateMutability": "nonpayable",
      "type": "function"
    },
    {
      "inputs": [
        {
          "internalType": "uint256",
          "name": "_tokenId",
          "type": "uint256"
        },
        {
          "internalType": "uint256",
          "name": "_price",
          "type": "uint256"
        }
      ],
      "name": "putTrade",
      "outputs": [],
      "stateMutability": "nonpayable",
      "type": "function"
    },
    {
      "inputs": [
        {
          "internalType": "uint256",
          "name": "_tokenId",
          "type": "uint256"
        },
        {
          "internalType": "uint256",
          "name": "_amount",
          "type": "uint256"
        }
      ],
      "name": "buyTrade",
      "outputs": [],
      "stateMutability": "nonpayable",
      "type": "function"
    },
    {
      "inputs": [
        {
          "internalType": "uint256",
          "name": "_tokenId",
          "type": "uint256"
        }
      ],
      "name": "removeTrade",
      "outputs": [],
      "stateMutability": "nonpayable",
      "type": "function"
    },
    {
      "inputs": [
        {
          "internalType": "address",
          "name": "_contractAddress",
          "type": "address"
        }
      ],
      "name": "setDearMonsterAddress",
      "outputs": [],
      "stateMutability": "nonpayable",
      "type": "function"
    },
    {
      "inputs": [
        {
          "internalType": "address",
          "name": "_contractAddress",
          "type": "address"
        }
      ],
      "name": "setDMSAddress",
      "outputs": [],
      "stateMutability": "nonpayable",
      "type": "function"
    },
    {
      "inputs": [
        {
          "internalType": "address",
          "name": "_address",
          "type": "address"
        }
      ],
      "name": "setAdminAddress",
      "outputs": [],
      "stateMutability": "nonpayable",
      "type": "function"
    }
  ],
  "bytecode": "0x608060405234801561001057600080fd5b50604051610c5b380380610c5b83398101604081905261002f916100f2565b61003833610091565b600180546001600160a01b0319166001600160a01b038516179055600280546001600160a01b0319166001600160a01b038416179055600380546001600160a01b0319166001600160a01b038316179055505050610167565b600080546001600160a01b038381166001600160a01b0319831681178455604051919092169283917f8be0079c531659141344cd1fd0a4f28419497f9722a3daafe3b4186f6b6457e09190a35050565b80516100ec81610150565b92915050565b60008060006060848603121561010757600080fd5b600061011386866100e1565b9350506020610124868287016100e1565b9250506040610135868287016100e1565b9150509250925092565b60006001600160a01b0382166100ec565b6101598161013f565b811461016457600080fd5b50565b610ae5806101766000396000f3fe608060405234801561001057600080fd5b50600436106100b45760003560e01c806394cb09471161007157806394cb09471461016c578063d5d637d814610199578063e08405c7146101c9578063e5afe3e6146101dc578063f2fde38b146101fc578063f8a14f461461020f57600080fd5b80631bcb493e146100b95780632c1e816d146100eb57806354baee6e1461011b5780636007fd591461012e578063715018a6146101415780638da5cb5b14610149575b600080fd5b6100e96100c736600461079c565b600180546001600160a01b0319166001600160a01b0392909216919091179055565b005b6100e96100f936600461079c565b600380546001600160a01b0319166001600160a01b0392909216919091179055565b6100e96101293660046107fe565b610238565b6100e961013c3660046107fe565b61033d565b6100e96105a3565b6000546001600160a01b03165b604051610163919061092e565b60405180910390f35b61018c61017a36600461079c565b60046020526000908152604090205481565b60405161016391906109ce565b6100e96101a736600461079c565b600280546001600160a01b0319166001600160a01b0392909216919091179055565b6100e96101d73660046107e0565b6105d9565b61018c6101ea3660046107e0565b60056020526000908152604090205481565b6100e961020a36600461079c565b6106a2565b61015661021d3660046107e0565b6006602052600090815260409020546001600160a01b031681565b3360008181526004602081815260408084208790558684526006825280842080546001600160a01b0319168617905560059091529182902084905560015491516323b872dd60e01b81526001600160a01b03909216926323b872dd926102a292309188910161093c565b600060405180830381600087803b1580156102bc57600080fd5b505af11580156102d0573d6000803e3d6000fd5b505060015460405163570a9f1f60e11b81526001600160a01b03909116925063ae153e3e91506103079085906000906004016109dc565b600060405180830381600087803b15801561032157600080fd5b505af1158015610335573d6000803e3d6000fd5b505050505050565b6000828152600560205260409020548110156103745760405162461bcd60e51b815260040161036b90610974565b60405180910390fd5b600061038c606461038684605f6106fe565b90610713565b9050600061039a838361071f565b600254600086815260066020526040908190205490516323b872dd60e01b81529293506001600160a01b03918216926323b872dd926103e2923392911690879060040161093c565b602060405180830381600087803b1580156103fc57600080fd5b505af1158015610410573d6000803e3d6000fd5b505050506040513d601f19601f8201168201806040525081019061043491906107c2565b506002546003546040516323b872dd60e01b81526001600160a01b03928316926323b872dd9261046e92339290911690869060040161093c565b602060405180830381600087803b15801561048857600080fd5b505af115801561049c573d6000803e3d6000fd5b505050506040513d601f19601f820116820180604052508101906104c091906107c2565b50600154600085815260066020526040908190205490516323b872dd60e01b81526001600160a01b03928316926323b872dd92610506929116903390899060040161093c565b600060405180830381600087803b15801561052057600080fd5b505af1158015610534573d6000803e3d6000fd5b505060015460405163570a9f1f60e11b81526001600160a01b03909116925063ae153e3e915061056b9087906000906004016109dc565b600060405180830381600087803b15801561058557600080fd5b505af1158015610599573d6000803e3d6000fd5b5050505050505050565b6000546001600160a01b031633146105cd5760405162461bcd60e51b815260040161036b90610994565b6105d7600061072b565b565b3360009081526004602052604090205481146106075760405162461bcd60e51b815260040161036b90610984565b33600090815260046020818152604080842084905584845260058252808420849055600690915280832080546001600160a01b0319169055600154905163570a9f1f60e11b81526001600160a01b039091169263ae153e3e9261066d92869291016109dc565b600060405180830381600087803b15801561068757600080fd5b505af115801561069b573d6000803e3d6000fd5b5050505050565b6000546001600160a01b031633146106cc5760405162461bcd60e51b815260040161036b90610994565b6001600160a01b0381166106f25760405162461bcd60e51b815260040161036b90610964565b6106fb8161072b565b50565b600061070a8284610a12565b90505b92915050565b600061070a82846109fe565b600061070a8284610a31565b600080546001600160a01b038381166001600160a01b0319831681178455604051919092169283917f8be0079c531659141344cd1fd0a4f28419497f9722a3daafe3b4186f6b6457e09190a35050565b803561070d81610a8d565b805161070d81610aa1565b803561070d81610aa9565b6000602082840312156107ae57600080fd5b60006107ba848461077b565b949350505050565b6000602082840312156107d457600080fd5b60006107ba8484610786565b6000602082840312156107f257600080fd5b60006107ba8484610791565b6000806040838503121561081157600080fd5b600061081d8585610791565b925050602061082e85828601610791565b9150509250929050565b61084181610a48565b82525050565b61084181610a59565b602681526000602082017f4f776e61626c653a206e6577206f776e657220697320746865207a65726f206181526564647265737360d01b602082015291505b5060400190565b603481526000602082017f54686520746f6b656e20796f752073656e74206973206e6f7420656e6f756768815273103a3790313abc903a3434b99026b7b739ba32b960611b6020820152915061088f565b602481526000602082017f596f752068617665206e6f742074686973204d6f6e73746572206f6e2054726181526364696e6760e01b6020820152915061088f565b80610841565b6020810161070d8284610838565b6060810161094a8286610838565b6109576020830185610838565b6107ba6040830184610928565b6020808252810161070d81610850565b6020808252810161070d81610896565b6020808252810161070d816108e7565b60208082528181019081527f4f776e61626c653a2063616c6c6572206973206e6f7420746865206f776e657260408301526060820161070d565b6020810161070d8284610928565b604081016109ea8285610928565b6109f76020830184610847565b9392505050565b600082610a0d57610a0d610a77565b500490565b6000816000190483118215151615610a2c57610a2c610a61565b500290565b600082821015610a4357610a43610a61565b500390565b60006001600160a01b03821661070d565b60008161070d565b634e487b7160e01b600052601160045260246000fd5b634e487b7160e01b600052601260045260246000fd5b610a9681610a48565b81146106fb57600080fd5b801515610a96565b80610a9656fea26469706673582212200faae46a46872d156dcad1a6c13dc0784924dae93579a745ab713351e66a223664736f6c63430008040033",
  "immutableReferences": {},
  "source": "//SPDX-License-Identifier: Unlicense\r\npragma solidity ^0.8.4;\r\n\r\nimport \"@openzeppelin/contracts/token/ERC20/IERC20.sol\";\r\nimport \"@openzeppelin/contracts/access/Ownable.sol\";\r\nimport \"@openzeppelin/contracts/utils/math/SafeMath.sol\";\r\nimport \"./DearMonster.sol\";\r\n\r\ncontract DearMonsterTrading is Ownable {\r\n    using SafeMath for uint256;\r\n    using Strings for uint256;\r\n\r\n    DearMonster dearMonster;\r\n    IERC20 DMS;\r\n\r\n    address adminAddress;\r\n\r\n    mapping(address => uint256) public availableTokens;\r\n    mapping(uint256 => uint256) public tokenPrices;\r\n    mapping(uint256 => address) public tokenOwners;\r\n\r\n    constructor(address _nftAddress, address _tokenAddress, address _adminAddress) { \r\n        setDearMonsterAddress(_nftAddress);\r\n        setDMSAddress(_tokenAddress);\r\n        setAdminAddress(_adminAddress);\r\n    }\r\n\r\n    function putTrade(uint256 _tokenId, uint256 _price) public {\r\n        availableTokens[msg.sender] = _tokenId;\r\n        tokenOwners[_tokenId] = msg.sender;\r\n        tokenPrices[_tokenId] = _price;\r\n        dearMonster.transferFrom(msg.sender, address(this), _tokenId);\r\n        dearMonster.setEnergy(_tokenId, 0);\r\n    }\r\n\r\n    function buyTrade(uint256 _tokenId, uint256 _amount) public {\r\n        require(_amount >= tokenPrices[_tokenId], \"The token you sent is not enough to buy this Monster\");\r\n        uint256 sellerProfit = _amount.mul(95).div(100);\r\n        uint256 adminProfit = _amount.sub(sellerProfit);\r\n        DMS.transferFrom(msg.sender, tokenOwners[_tokenId], sellerProfit);\r\n        DMS.transferFrom(msg.sender, adminAddress, adminProfit);\r\n        dearMonster.transferFrom(tokenOwners[_tokenId], msg.sender, _tokenId);\r\n        dearMonster.setEnergy(_tokenId, 0);\r\n    }\r\n\r\n    function removeTrade(uint256 _tokenId) public {\r\n        require(availableTokens[msg.sender] == _tokenId, \"You have not this Monster on Trading\");\r\n        availableTokens[msg.sender] = 0;\r\n        tokenPrices[_tokenId] = 0;\r\n        tokenOwners[_tokenId] = address(0);\r\n        dearMonster.setEnergy(_tokenId, 0);\r\n    }\r\n\r\n    function setDearMonsterAddress(address _contractAddress) public {\r\n        dearMonster = DearMonster(_contractAddress);\r\n    }\r\n\r\n    function setDMSAddress(address _contractAddress) public {\r\n        DMS = IERC20(_contractAddress);\r\n    }\r\n\r\n    function setAdminAddress(address _address) public {\r\n        adminAddress = _address;\r\n    }\r\n\r\n}\r\n",
  "sourcePath": "D:\\Work\\Work_2021\\2021_12\\Hunter_blockchain\\DearMonster\\contracts\\DearMonsterTrading.sol",
  "compiler": {
    "name": "solc",
    "version": "0.8.4+commit.c7e474f2.Emscripten.clang"
  },
  "schemaVersion": "3.4.4",
  "updatedAt": "2022-01-05T03:56:17.056Z",
  "networkType": "ethereum",
  "devdoc": {
    "kind": "dev",
    "methods": {
      "owner()": {
        "details": "Returns the address of the current owner."
      },
      "renounceOwnership()": {
        "details": "Leaves the contract without owner. It will not be possible to call `onlyOwner` functions anymore. Can only be called by the current owner. NOTE: Renouncing ownership will leave the contract without an owner, thereby removing any functionality that is only available to the owner."
      },
      "transferOwnership(address)": {
        "details": "Transfers ownership of the contract to a new account (`newOwner`). Can only be called by the current owner."
      }
    },
    "version": 1
  },
  "userdoc": {
    "kind": "user",
    "methods": {},
    "version": 1
  }
}