{
  "contractName": "DearMonster",
  "abi": [
    {
      "inputs": [
        {
          "internalType": "string",
          "name": "_monsterImageURI",
          "type": "string"
        },
        {
          "internalType": "string",
          "name": "_caveImageURI",
          "type": "string"
        },
        {
          "internalType": "address",
          "name": "_dmsAddress",
          "type": "address"
        }
      ],
      "stateMutability": "nonpayable",
      "type": "constructor"
    },
    {
      "anonymous": false,
      "inputs": [
        {
          "indexed": true,
          "internalType": "address",
          "name": "owner",
          "type": "address"
        },
        {
          "indexed": true,
          "internalType": "address",
          "name": "approved",
          "type": "address"
        },
        {
          "indexed": true,
          "internalType": "uint256",
          "name": "tokenId",
          "type": "uint256"
        }
      ],
      "name": "Approval",
      "type": "event"
    },
    {
      "anonymous": false,
      "inputs": [
        {
          "indexed": true,
          "internalType": "address",
          "name": "owner",
          "type": "address"
        },
        {
          "indexed": true,
          "internalType": "address",
          "name": "operator",
          "type": "address"
        },
        {
          "indexed": false,
          "internalType": "bool",
          "name": "approved",
          "type": "bool"
        }
      ],
      "name": "ApprovalForAll",
      "type": "event"
    },
    {
      "anonymous": false,
      "inputs": [
        {
          "indexed": true,
          "internalType": "address",
          "name": "previousOwner",
          "type": "address"
        },
        {
          "indexed": true,
          "internalType": "address",
          "name": "newOwner",
          "type": "address"
        }
      ],
      "name": "OwnershipTransferred",
      "type": "event"
    },
    {
      "anonymous": false,
      "inputs": [
        {
          "indexed": true,
          "internalType": "address",
          "name": "from",
          "type": "address"
        },
        {
          "indexed": true,
          "internalType": "address",
          "name": "to",
          "type": "address"
        },
        {
          "indexed": true,
          "internalType": "uint256",
          "name": "tokenId",
          "type": "uint256"
        }
      ],
      "name": "Transfer",
      "type": "event"
    },
    {
      "inputs": [],
      "name": "MAX_PER_MINT",
      "outputs": [
        {
          "internalType": "uint256",
          "name": "",
          "type": "uint256"
        }
      ],
      "stateMutability": "view",
      "type": "function",
      "constant": true
    },
    {
      "inputs": [],
      "name": "MAX_SUPPLY",
      "outputs": [
        {
          "internalType": "uint256",
          "name": "",
          "type": "uint256"
        }
      ],
      "stateMutability": "view",
      "type": "function",
      "constant": true
    },
    {
      "inputs": [],
      "name": "_tokenIds",
      "outputs": [
        {
          "internalType": "uint256",
          "name": "",
          "type": "uint256"
        }
      ],
      "stateMutability": "view",
      "type": "function",
      "constant": true
    },
    {
      "inputs": [
        {
          "internalType": "address",
          "name": "to",
          "type": "address"
        },
        {
          "internalType": "uint256",
          "name": "tokenId",
          "type": "uint256"
        }
      ],
      "name": "approve",
      "outputs": [],
      "stateMutability": "nonpayable",
      "type": "function"
    },
    {
      "inputs": [
        {
          "internalType": "uint256",
          "name": "",
          "type": "uint256"
        }
      ],
      "name": "attributes",
      "outputs": [
        {
          "internalType": "address",
          "name": "owner",
          "type": "address"
        },
        {
          "internalType": "string",
          "name": "name",
          "type": "string"
        },
        {
          "internalType": "string",
          "name": "element",
          "type": "string"
        },
        {
          "internalType": "uint256",
          "name": "level",
          "type": "uint256"
        },
        {
          "internalType": "uint256",
          "name": "exp",
          "type": "uint256"
        },
        {
          "internalType": "uint256",
          "name": "star",
          "type": "uint256"
        },
        {
          "internalType": "uint256",
          "name": "energy",
          "type": "uint256"
        }
      ],
      "stateMutability": "view",
      "type": "function",
      "constant": true
    },
    {
      "inputs": [
        {
          "internalType": "address",
          "name": "owner",
          "type": "address"
        }
      ],
      "name": "balanceOf",
      "outputs": [
        {
          "internalType": "uint256",
          "name": "",
          "type": "uint256"
        }
      ],
      "stateMutability": "view",
      "type": "function",
      "constant": true
    },
    {
      "inputs": [],
      "name": "baseTokenURI",
      "outputs": [
        {
          "internalType": "string",
          "name": "",
          "type": "string"
        }
      ],
      "stateMutability": "view",
      "type": "function",
      "constant": true
    },
    {
      "inputs": [],
      "name": "caveImageURI",
      "outputs": [
        {
          "internalType": "string",
          "name": "",
          "type": "string"
        }
      ],
      "stateMutability": "view",
      "type": "function",
      "constant": true
    },
    {
      "inputs": [
        {
          "internalType": "uint256",
          "name": "",
          "type": "uint256"
        }
      ],
      "name": "elementPath",
      "outputs": [
        {
          "internalType": "string",
          "name": "",
          "type": "string"
        }
      ],
      "stateMutability": "view",
      "type": "function",
      "constant": true
    },
    {
      "inputs": [
        {
          "internalType": "uint256",
          "name": "tokenId",
          "type": "uint256"
        }
      ],
      "name": "getApproved",
      "outputs": [
        {
          "internalType": "address",
          "name": "",
          "type": "address"
        }
      ],
      "stateMutability": "view",
      "type": "function",
      "constant": true
    },
    {
      "inputs": [
        {
          "internalType": "address",
          "name": "owner",
          "type": "address"
        },
        {
          "internalType": "address",
          "name": "operator",
          "type": "address"
        }
      ],
      "name": "isApprovedForAll",
      "outputs": [
        {
          "internalType": "bool",
          "name": "",
          "type": "bool"
        }
      ],
      "stateMutability": "view",
      "type": "function",
      "constant": true
    },
    {
      "inputs": [],
      "name": "isRevealed",
      "outputs": [
        {
          "internalType": "bool",
          "name": "",
          "type": "bool"
        }
      ],
      "stateMutability": "view",
      "type": "function",
      "constant": true
    },
    {
      "inputs": [],
      "name": "monsterImageURI",
      "outputs": [
        {
          "internalType": "string",
          "name": "",
          "type": "string"
        }
      ],
      "stateMutability": "view",
      "type": "function",
      "constant": true
    },
    {
      "inputs": [],
      "name": "name",
      "outputs": [
        {
          "internalType": "string",
          "name": "",
          "type": "string"
        }
      ],
      "stateMutability": "view",
      "type": "function",
      "constant": true
    },
    {
      "inputs": [],
      "name": "owner",
      "outputs": [
        {
          "internalType": "address",
          "name": "",
          "type": "address"
        }
      ],
      "stateMutability": "view",
      "type": "function",
      "constant": true
    },
    {
      "inputs": [
        {
          "internalType": "uint256",
          "name": "tokenId",
          "type": "uint256"
        }
      ],
      "name": "ownerOf",
      "outputs": [
        {
          "internalType": "address",
          "name": "",
          "type": "address"
        }
      ],
      "stateMutability": "view",
      "type": "function",
      "constant": true
    },
    {
      "inputs": [],
      "name": "presaleActive",
      "outputs": [
        {
          "internalType": "bool",
          "name": "",
          "type": "bool"
        }
      ],
      "stateMutability": "view",
      "type": "function",
      "constant": true
    },
    {
      "inputs": [],
      "name": "renounceOwnership",
      "outputs": [],
      "stateMutability": "nonpayable",
      "type": "function"
    },
    {
      "inputs": [
        {
          "internalType": "uint256",
          "name": "",
          "type": "uint256"
        }
      ],
      "name": "returnAttributes",
      "outputs": [
        {
          "internalType": "address",
          "name": "owner",
          "type": "address"
        },
        {
          "internalType": "string",
          "name": "name",
          "type": "string"
        },
        {
          "internalType": "string",
          "name": "element",
          "type": "string"
        },
        {
          "internalType": "uint256",
          "name": "level",
          "type": "uint256"
        },
        {
          "internalType": "uint256",
          "name": "exp",
          "type": "uint256"
        },
        {
          "internalType": "uint256",
          "name": "star",
          "type": "uint256"
        },
        {
          "internalType": "uint256",
          "name": "energy",
          "type": "uint256"
        }
      ],
      "stateMutability": "view",
      "type": "function",
      "constant": true
    },
    {
      "inputs": [
        {
          "internalType": "address",
          "name": "from",
          "type": "address"
        },
        {
          "internalType": "address",
          "name": "to",
          "type": "address"
        },
        {
          "internalType": "uint256",
          "name": "tokenId",
          "type": "uint256"
        }
      ],
      "name": "safeTransferFrom",
      "outputs": [],
      "stateMutability": "nonpayable",
      "type": "function"
    },
    {
      "inputs": [
        {
          "internalType": "address",
          "name": "from",
          "type": "address"
        },
        {
          "internalType": "address",
          "name": "to",
          "type": "address"
        },
        {
          "internalType": "uint256",
          "name": "tokenId",
          "type": "uint256"
        },
        {
          "internalType": "bytes",
          "name": "_data",
          "type": "bytes"
        }
      ],
      "name": "safeTransferFrom",
      "outputs": [],
      "stateMutability": "nonpayable",
      "type": "function"
    },
    {
      "inputs": [
        {
          "internalType": "address",
          "name": "operator",
          "type": "address"
        },
        {
          "internalType": "bool",
          "name": "approved",
          "type": "bool"
        }
      ],
      "name": "setApprovalForAll",
      "outputs": [],
      "stateMutability": "nonpayable",
      "type": "function"
    },
    {
      "inputs": [
        {
          "internalType": "bytes4",
          "name": "interfaceId",
          "type": "bytes4"
        }
      ],
      "name": "supportsInterface",
      "outputs": [
        {
          "internalType": "bool",
          "name": "",
          "type": "bool"
        }
      ],
      "stateMutability": "view",
      "type": "function",
      "constant": true
    },
    {
      "inputs": [],
      "name": "symbol",
      "outputs": [
        {
          "internalType": "string",
          "name": "",
          "type": "string"
        }
      ],
      "stateMutability": "view",
      "type": "function",
      "constant": true
    },
    {
      "inputs": [
        {
          "internalType": "uint256",
          "name": "index",
          "type": "uint256"
        }
      ],
      "name": "tokenByIndex",
      "outputs": [
        {
          "internalType": "uint256",
          "name": "",
          "type": "uint256"
        }
      ],
      "stateMutability": "view",
      "type": "function",
      "constant": true
    },
    {
      "inputs": [
        {
          "internalType": "address",
          "name": "owner",
          "type": "address"
        },
        {
          "internalType": "uint256",
          "name": "index",
          "type": "uint256"
        }
      ],
      "name": "tokenOfOwnerByIndex",
      "outputs": [
        {
          "internalType": "uint256",
          "name": "",
          "type": "uint256"
        }
      ],
      "stateMutability": "view",
      "type": "function",
      "constant": true
    },
    {
      "inputs": [],
      "name": "totalSupply",
      "outputs": [
        {
          "internalType": "uint256",
          "name": "",
          "type": "uint256"
        }
      ],
      "stateMutability": "view",
      "type": "function",
      "constant": true
    },
    {
      "inputs": [
        {
          "internalType": "address",
          "name": "from",
          "type": "address"
        },
        {
          "internalType": "address",
          "name": "to",
          "type": "address"
        },
        {
          "internalType": "uint256",
          "name": "tokenId",
          "type": "uint256"
        }
      ],
      "name": "transferFrom",
      "outputs": [],
      "stateMutability": "nonpayable",
      "type": "function"
    },
    {
      "inputs": [
        {
          "internalType": "address",
          "name": "newOwner",
          "type": "address"
        }
      ],
      "name": "transferOwnership",
      "outputs": [],
      "stateMutability": "nonpayable",
      "type": "function"
    },
    {
      "inputs": [
        {
          "internalType": "string",
          "name": "_monsterImageURI",
          "type": "string"
        }
      ],
      "name": "setMonsterImageURI",
      "outputs": [],
      "stateMutability": "nonpayable",
      "type": "function"
    },
    {
      "inputs": [
        {
          "internalType": "uint256",
          "name": "_maxSupply",
          "type": "uint256"
        }
      ],
      "name": "setMaxSupply",
      "outputs": [],
      "stateMutability": "nonpayable",
      "type": "function"
    },
    {
      "inputs": [],
      "name": "getMaxSupply",
      "outputs": [
        {
          "internalType": "uint256",
          "name": "",
          "type": "uint256"
        }
      ],
      "stateMutability": "view",
      "type": "function",
      "constant": true
    },
    {
      "inputs": [
        {
          "internalType": "uint256",
          "name": "_maxPurchaseLimit",
          "type": "uint256"
        }
      ],
      "name": "setMaxPurchaseLimit",
      "outputs": [],
      "stateMutability": "nonpayable",
      "type": "function"
    },
    {
      "inputs": [],
      "name": "getMaxPurchaseLimit",
      "outputs": [
        {
          "internalType": "uint256",
          "name": "",
          "type": "uint256"
        }
      ],
      "stateMutability": "view",
      "type": "function",
      "constant": true
    },
    {
      "inputs": [
        {
          "internalType": "uint256",
          "name": "_price",
          "type": "uint256"
        }
      ],
      "name": "setPrice",
      "outputs": [],
      "stateMutability": "nonpayable",
      "type": "function"
    },
    {
      "inputs": [],
      "name": "getPrice",
      "outputs": [
        {
          "internalType": "uint256",
          "name": "",
          "type": "uint256"
        }
      ],
      "stateMutability": "view",
      "type": "function",
      "constant": true
    },
    {
      "inputs": [],
      "name": "checkMaxSupply",
      "outputs": [
        {
          "internalType": "bool",
          "name": "",
          "type": "bool"
        }
      ],
      "stateMutability": "view",
      "type": "function",
      "constant": true
    },
    {
      "inputs": [
        {
          "internalType": "string",
          "name": "_caveImageURI",
          "type": "string"
        }
      ],
      "name": "setCaveImageURI",
      "outputs": [],
      "stateMutability": "nonpayable",
      "type": "function"
    },
    {
      "inputs": [
        {
          "internalType": "string",
          "name": "_baseTokenURI",
          "type": "string"
        }
      ],
      "name": "setBaseURI",
      "outputs": [],
      "stateMutability": "nonpayable",
      "type": "function"
    },
    {
      "inputs": [
        {
          "internalType": "uint256",
          "name": "tokenId",
          "type": "uint256"
        }
      ],
      "name": "tokenURI",
      "outputs": [
        {
          "internalType": "string",
          "name": "",
          "type": "string"
        }
      ],
      "stateMutability": "view",
      "type": "function",
      "constant": true
    },
    {
      "inputs": [],
      "name": "getTokenIds",
      "outputs": [
        {
          "internalType": "uint256",
          "name": "",
          "type": "uint256"
        }
      ],
      "stateMutability": "view",
      "type": "function",
      "constant": true
    },
    {
      "inputs": [
        {
          "internalType": "string[]",
          "name": "element",
          "type": "string[]"
        },
        {
          "internalType": "uint256[]",
          "name": "ratings",
          "type": "uint256[]"
        },
        {
          "internalType": "uint256",
          "name": "amount",
          "type": "uint256"
        }
      ],
      "name": "mintDearMonster",
      "outputs": [],
      "stateMutability": "nonpayable",
      "type": "function"
    },
    {
      "inputs": [],
      "name": "getElementPath",
      "outputs": [
        {
          "internalType": "string[]",
          "name": "",
          "type": "string[]"
        }
      ],
      "stateMutability": "view",
      "type": "function",
      "constant": true
    },
    {
      "inputs": [],
      "name": "getAttributes",
      "outputs": [
        {
          "components": [
            {
              "internalType": "address",
              "name": "owner",
              "type": "address"
            },
            {
              "internalType": "string",
              "name": "name",
              "type": "string"
            },
            {
              "internalType": "string",
              "name": "element",
              "type": "string"
            },
            {
              "internalType": "uint256",
              "name": "level",
              "type": "uint256"
            },
            {
              "internalType": "uint256",
              "name": "exp",
              "type": "uint256"
            },
            {
              "internalType": "uint256",
              "name": "star",
              "type": "uint256"
            },
            {
              "internalType": "uint256",
              "name": "energy",
              "type": "uint256"
            }
          ],
          "internalType": "struct DearMonster.Attribute[]",
          "name": "",
          "type": "tuple[]"
        }
      ],
      "stateMutability": "view",
      "type": "function",
      "constant": true
    },
    {
      "inputs": [],
      "name": "getOwner",
      "outputs": [
        {
          "internalType": "address",
          "name": "",
          "type": "address"
        }
      ],
      "stateMutability": "view",
      "type": "function",
      "constant": true
    },
    {
      "inputs": [
        {
          "internalType": "uint256",
          "name": "limit",
          "type": "uint256"
        }
      ],
      "name": "randomImageId",
      "outputs": [
        {
          "internalType": "uint256",
          "name": "",
          "type": "uint256"
        }
      ],
      "stateMutability": "view",
      "type": "function",
      "constant": true
    },
    {
      "inputs": [
        {
          "internalType": "uint256",
          "name": "_tokenId",
          "type": "uint256"
        },
        {
          "internalType": "uint256",
          "name": "_energy",
          "type": "uint256"
        }
      ],
      "name": "setEnergy",
      "outputs": [],
      "stateMutability": "nonpayable",
      "type": "function"
    },
    {
      "inputs": [],
      "name": "toggleReveal",
      "outputs": [],
      "stateMutability": "nonpayable",
      "type": "function"
    },
    {
      "inputs": [
        {
          "internalType": "address",
          "name": "_owner",
          "type": "address"
        }
      ],
      "name": "tokensOfOwner",
      "outputs": [
        {
          "internalType": "uint256[]",
          "name": "",
          "type": "uint256[]"
        }
      ],
      "stateMutability": "view",
      "type": "function",
      "constant": true
    },
    {
      "inputs": [],
      "name": "withdraw",
      "outputs": [],
      "stateMutability": "payable",
      "type": "function",
      "payable": true
    }
  ],
  "bytecode": "0x601e600d819055600e55600a600f556139d06010556011805461ffff1916600117905569021e19e0c9bab240000060125560c060405260046080819052632e706e6760e01b60a0908152620000589160169190620002b9565b5060408051808201909152600580825264173539b7b760d91b60209092019182526200008791601791620002b9565b503480156200009557600080fd5b5060405162003ba538038062003ba5833981016040819052620000b891620003e3565b604080518082018252601481527f446561724d6f6e73746572436861726163746572000000000000000000000000602080830191825283518085019094526003845262444d4360e81b9084015281519192916200011891600091620002b9565b5080516200012e906001906020840190620002b9565b5050506200014b620001456200019560201b60201c565b62000199565b6200015683620001eb565b62000161836200023a565b6200016c826200027c565b600c80546001600160a01b0319166001600160a01b039290921691909117905550620005d89050565b3390565b600a80546001600160a01b038381166001600160a01b0319831681179093556040519116919082907f8be0079c531659141344cd1fd0a4f28419497f9722a3daafe3b4186f6b6457e090600090a35050565b600a546001600160a01b03163314620002215760405162461bcd60e51b8152600401620002189062000466565b60405180910390fd5b805162000236906014906020840190620002b9565b5050565b600a546001600160a01b03163314620002675760405162461bcd60e51b8152600401620002189062000466565b805162000236906013906020840190620002b9565b600a546001600160a01b03163314620002a95760405162461bcd60e51b8152600401620002189062000466565b8051620002369060159060208401905b828054620002c79062000532565b90600052602060002090601f016020900481019282620002eb576000855562000336565b82601f106200030657805160ff191683800117855562000336565b8280016001018555821562000336579182015b828111156200033657825182559160200191906001019062000319565b506200034492915062000348565b5090565b5b8082111562000344576000815560010162000349565b6000620003766200037084620004c0565b620004a1565b9050828152602081018484840111156200038f57600080fd5b6200039c848285620004ff565b509392505050565b8051620003b181620005be565b92915050565b600082601f830112620003c957600080fd5b8151620003db8482602086016200035f565b949350505050565b600080600060608486031215620003f957600080fd5b83516001600160401b038111156200041057600080fd5b6200041e86828701620003b7565b93505060208401516001600160401b038111156200043b57600080fd5b6200044986828701620003b7565b92505060406200045c86828701620003a4565b9150509250925092565b60208082528181019081527f4f776e61626c653a2063616c6c6572206973206e6f7420746865206f776e6572604083015260608201620003b1565b6000620004ad60405190565b9050620004bb828262000563565b919050565b60006001600160401b03821115620004dc57620004dc620005a8565b601f19601f83011660200192915050565b60006001600160a01b038216620003b1565b60005b838110156200051c57818101518382015260200162000502565b838111156200052c576000848401525b50505050565b6002810460018216806200054757607f821691505b602082108114156200055d576200055d62000592565b50919050565b601f19601f83011681018181106001600160401b03821117156200058b576200058b620005a8565b6040525050565b634e487b7160e01b600052602260045260246000fd5b634e487b7160e01b600052604160045260246000fd5b620005c981620004ed565b8114620005d557600080fd5b50565b6135bd80620005e86000396000f3fe6080604052600436106102c95760003560e01c806367f718a911610175578063ae153e3e116100dc578063ce22dcda11610095578063d547cfb71161006f578063d547cfb71461082d578063db9b24fa14610842578063e985e9c514610857578063f2fde38b146108a057600080fd5b8063ce22dcda146107d8578063d05dcc6a146107ed578063d0a76dc61461080d57600080fd5b8063ae153e3e14610723578063b1866f7d14610743578063b88d4fde14610763578063b8b1902314610783578063bd59c298146107a3578063c87b56dd146107b857600080fd5b80638da5cb5b1161012e5780638da5cb5b1461068557806391b7f5ed146106a357806395d89b41146106c357806398d5fdca146106d8578063a22cb465146106ed578063aa46a4001461070d57600080fd5b806367f718a9146105d95780636f8b44b0146105ee57806370a082311461060e578063715018a61461062e5780638462151c14610643578063893d20e81461067057600080fd5b80633b4fa771116102345780634f6ccce7116101ed578063542f861f116101c7578063542f861f1461056457806355f804b3146105845780635b8ad429146105a45780636352211e146105b957600080fd5b80634f6ccce71461050b57806353135ca01461052b57806354214f691461054557600080fd5b80633b4fa771146104665780633ccfd60b1461047b57806341faf74f1461048357806342842e0e146104b657806345e313aa146104d65780634c0f38c2146104f657600080fd5b8063152583de11610286578063152583de146103b757806318160ddd146103d957806323b872dd146103ee57806324a08ab71461040e5780632f745c591461043057806332cb6b0c1461045057600080fd5b806301ffc9a7146102ce578063049d5f6a1461030457806306fdde0314610331578063081812fc14610346578063095ea7b31461037357806309d42b3014610395575b600080fd5b3480156102da57600080fd5b506102ee6102e936600461278e565b6108c0565b6040516102fb91906131f0565b60405180910390f35b34801561031057600080fd5b5061032461031f3660046127ff565b6108eb565b6040516102fb91906131fe565b34801561033d57600080fd5b50610324610997565b34801561035257600080fd5b506103666103613660046127ff565b610a29565b6040516102fb91906130cd565b34801561037f57600080fd5b5061039361038e3660046126df565b610a82565b005b3480156103a157600080fd5b506103aa600181565b6040516102fb919061336f565b3480156103c357600080fd5b506103cc610b08565b6040516102fb91906131ce565b3480156103e557600080fd5b506008546103aa565b3480156103fa57600080fd5b506103936104093660046125e9565b610cc9565b34801561041a57600080fd5b50610423610cfa565b6040516102fb91906131bd565b34801561043c57600080fd5b506103aa61044b3660046126df565b610dca565b34801561045c57600080fd5b506103aa600d5481565b34801561047257600080fd5b50600f546103aa565b610393610e1c565b34801561048f57600080fd5b506104a361049e3660046127ff565b610ee4565b6040516102fb9796959493929190613147565b3480156104c257600080fd5b506103936104d13660046125e9565b61104c565b3480156104e257600080fd5b506103936104f13660046127ff565b611067565b34801561050257600080fd5b50600e546103aa565b34801561051757600080fd5b506103aa6105263660046127ff565b611096565b34801561053757600080fd5b506011546102ee9060ff1681565b34801561055157600080fd5b506011546102ee90610100900460ff1681565b34801561057057600080fd5b5061039361057f36600461270f565b6110f2565b34801561059057600080fd5b5061039361059f3660046127ca565b611242565b3480156105b057600080fd5b5061039361127f565b3480156105c557600080fd5b506103666105d43660046127ff565b6112c6565b3480156105e557600080fd5b50600b546103aa565b3480156105fa57600080fd5b506103936106093660046127ff565b6112fb565b34801561061a57600080fd5b506103aa610629366004612591565b61132a565b34801561063a57600080fd5b5061039361136e565b34801561064f57600080fd5b5061066361065e366004612591565b6113a4565b6040516102fb91906131df565b34801561067c57600080fd5b50610366611462565b34801561069157600080fd5b50600a546001600160a01b0316610366565b3480156106af57600080fd5b506103936106be3660046127ff565b61147b565b3480156106cf57600080fd5b506103246114aa565b3480156106e457600080fd5b506010546103aa565b3480156106f957600080fd5b506103936107083660046126af565b6114b9565b34801561071957600080fd5b506103aa600b5481565b34801561072f57600080fd5b5061039361073e36600461283b565b6114c4565b34801561074f57600080fd5b506103aa61075e3660046127ff565b6114ff565b34801561076f57600080fd5b5061039361077e366004612636565b61153f565b34801561078f57600080fd5b5061039361079e3660046127ca565b611577565b3480156107af57600080fd5b506103246115b4565b3480156107c457600080fd5b506103246107d33660046127ff565b6115c1565b3480156107e457600080fd5b506103246116f8565b3480156107f957600080fd5b506104a36108083660046127ff565b611705565b34801561081957600080fd5b506103936108283660046127ca565b611715565b34801561083957600080fd5b50610324611752565b34801561084e57600080fd5b506102ee61175f565b34801561086357600080fd5b506102ee6108723660046125af565b6001600160a01b03918216600090815260056020908152604080832093909416825291909152205460ff1690565b3480156108ac57600080fd5b506103936108bb366004612591565b611774565b60006001600160e01b0319821663780e9d6360e01b14806108e557506108e5826117d0565b92915050565b601a81815481106108fb57600080fd5b90600052602060002001600091509050805461091690613474565b80601f016020809104026020016040519081016040528092919081815260200182805461094290613474565b801561098f5780601f106109645761010080835404028352916020019161098f565b820191906000526020600020905b81548152906001019060200180831161097257829003601f168201915b505050505081565b6060600080546109a690613474565b80601f01602080910402602001604051908101604052809291908181526020018280546109d290613474565b8015610a1f5780601f106109f457610100808354040283529160200191610a1f565b820191906000526020600020905b815481529060010190602001808311610a0257829003601f168201915b5050505050905090565b6000818152600260205260408120546001600160a01b0316610a665760405162461bcd60e51b8152600401610a5d906132ef565b60405180910390fd5b506000908152600460205260409020546001600160a01b031690565b6000610a8d826112c6565b9050806001600160a01b0316836001600160a01b03161415610ac15760405162461bcd60e51b8152600401610a5d9061332f565b336001600160a01b0382161480610add5750610add8133610872565b610af95760405162461bcd60e51b8152600401610a5d9061328f565b610b038383611820565b505050565b60606018805480602002602001604051908101604052809291908181526020016000905b82821015610cc05760008481526020908190206040805160e081019091526007850290910180546001600160a01b031682526001810180549293919291840191610b7590613474565b80601f0160208091040260200160405190810160405280929190818152602001828054610ba190613474565b8015610bee5780601f10610bc357610100808354040283529160200191610bee565b820191906000526020600020905b815481529060010190602001808311610bd157829003601f168201915b50505050508152602001600282018054610c0790613474565b80601f0160208091040260200160405190810160405280929190818152602001828054610c3390613474565b8015610c805780601f10610c5557610100808354040283529160200191610c80565b820191906000526020600020905b815481529060010190602001808311610c6357829003601f168201915b5050505050815260200160038201548152602001600482015481526020016005820154815260200160068201548152505081526020019060010190610b2c565b50505050905090565b610cd3338261188e565b610cef5760405162461bcd60e51b8152600401610a5d9061334f565b610b03838383611940565b6060601a805480602002602001604051908101604052809291908181526020016000905b82821015610cc0578382906000526020600020018054610d3d90613474565b80601f0160208091040260200160405190810160405280929190818152602001828054610d6990613474565b8015610db65780601f10610d8b57610100808354040283529160200191610db6565b820191906000526020600020905b815481529060010190602001808311610d9957829003601f168201915b505050505081526020019060010190610d1e565b6000610dd58361132a565b8210610df35760405162461bcd60e51b8152600401610a5d9061320f565b506001600160a01b03919091166000908152600660209081526040808320938352929052205490565b600a546001600160a01b03163314610e465760405162461bcd60e51b8152600401610a5d906132ff565b4780610e645760405162461bcd60e51b8152600401610a5d906132df565b6000336001600160a01b031682604051610e7d906130b0565b60006040518083038185875af1925050503d8060008114610eba576040519150601f19603f3d011682016040523d82523d6000602084013e610ebf565b606091505b5050905080610ee05760405162461bcd60e51b8152600401610a5d9061333f565b5050565b60198181548110610ef457600080fd5b6000918252602090912060079091020180546001820180546001600160a01b03909216935090610f2390613474565b80601f0160208091040260200160405190810160405280929190818152602001828054610f4f90613474565b8015610f9c5780601f10610f7157610100808354040283529160200191610f9c565b820191906000526020600020905b815481529060010190602001808311610f7f57829003601f168201915b505050505090806002018054610fb190613474565b80601f0160208091040260200160405190810160405280929190818152602001828054610fdd90613474565b801561102a5780601f10610fff5761010080835404028352916020019161102a565b820191906000526020600020905b81548152906001019060200180831161100d57829003601f168201915b5050505050908060030154908060040154908060050154908060060154905087565b610b038383836040518060200160405280600081525061153f565b600a546001600160a01b031633146110915760405162461bcd60e51b8152600401610a5d906132ff565b600f55565b60006110a160085490565b82106110bf5760405162461bcd60e51b8152600401610a5d9061335f565b600882815481106110e057634e487b7160e01b600052603260045260246000fd5b90600052602060002001549050919050565b600c546040516370a0823160e01b815282916001600160a01b0316906370a08231906111229033906004016130cd565b60206040518083038186803b15801561113a57600080fd5b505afa15801561114e573d6000803e3d6000fd5b505050506040513d601f19601f82011682018060405250810190611172919061281d565b10156111905760405162461bcd60e51b8152600401610a5d9061326f565b600c546040516323b872dd60e01b81526001600160a01b03909116906323b872dd906111c4903390309086906004016130db565b602060405180830381600087803b1580156111de57600080fd5b505af11580156111f2573d6000803e3d6000fd5b505050506040513d601f19601f820116820180604052508101906112169190612770565b15156001146112375760405162461bcd60e51b8152600401610a5d906132bf565b610b03338484611a6d565b600a546001600160a01b0316331461126c5760405162461bcd60e51b8152600401610a5d906132ff565b8051610ee090601390602084019061233c565b600a546001600160a01b031633146112a95760405162461bcd60e51b8152600401610a5d906132ff565b6011805461ff001981166101009182900460ff1615909102179055565b6000818152600260205260408120546001600160a01b0316806108e55760405162461bcd60e51b8152600401610a5d906132af565b600a546001600160a01b031633146113255760405162461bcd60e51b8152600401610a5d906132ff565b600e55565b60006001600160a01b0382166113525760405162461bcd60e51b8152600401610a5d9061329f565b506001600160a01b031660009081526003602052604090205490565b600a546001600160a01b031633146113985760405162461bcd60e51b8152600401610a5d906132ff565b6113a26000611c31565b565b606060006113b18361132a565b905060008167ffffffffffffffff8111156113dc57634e487b7160e01b600052604160045260246000fd5b604051908082528060200260200182016040528015611405578160200160208202803683370190505b50905060005b8281101561145a5761141d8582610dca565b82828151811061143d57634e487b7160e01b600052603260045260246000fd5b602090810291909101015280611452816134ce565b91505061140b565b509392505050565b6000611476600a546001600160a01b031690565b905090565b600a546001600160a01b031633146114a55760405162461bcd60e51b8152600401610a5d906132ff565b601055565b6060600180546109a690613474565b610ee0338383611c83565b80601883815481106114e657634e487b7160e01b600052603260045260246000fd5b9060005260206000209060070201600601819055505050565b6000814260405160200161151391906130b8565b6040516020818303038152906040528051906020012060001c61153691906134e9565b60ff1692915050565b611549338361188e565b6115655760405162461bcd60e51b8152600401610a5d9061334f565b61157184848484611d26565b50505050565b600a546001600160a01b031633146115a15760405162461bcd60e51b8152600401610a5d906132ff565b8051610ee090601490602084019061233c565b6014805461091690613474565b6000818152600260205260409020546060906001600160a01b03166115f85760405162461bcd60e51b8152600401610a5d9061331f565b601154610100900460ff16611699576015805461161490613474565b80601f016020809104026020016040519081016040528092919081815260200182805461164090613474565b801561168d5780601f106116625761010080835404028352916020019161168d565b820191906000526020600020905b81548152906001019060200180831161167057829003601f168201915b50505050509050919050565b60006116a3611d59565b905060008151116116c357604051806020016040528060008152506116f1565b806116cd84611d68565b60166040516020016116e193929190613083565b6040516020818303038152906040525b9392505050565b6015805461091690613474565b60188181548110610ef457600080fd5b600a546001600160a01b0316331461173f5760405162461bcd60e51b8152600401610a5d906132ff565b8051610ee090601590602084019061233c565b6013805461091690613474565b6000600e5461176d60085490565b1015905090565b600a546001600160a01b0316331461179e5760405162461bcd60e51b8152600401610a5d906132ff565b6001600160a01b0381166117c45760405162461bcd60e51b8152600401610a5d9061322f565b6117cd81611c31565b50565b60006001600160e01b031982166380ac58cd60e01b148061180157506001600160e01b03198216635b5e139f60e01b145b806108e557506301ffc9a760e01b6001600160e01b03198316146108e5565b600081815260046020526040902080546001600160a01b0319166001600160a01b0384169081179091558190611855826112c6565b6001600160a01b03167f8c5be1e5ebec7d5bd14f71427d1e84f3dd0314c0f7b2291e5b200ac8c7c3b92560405160405180910390a45050565b6000818152600260205260408120546001600160a01b03166118c25760405162461bcd60e51b8152600401610a5d9061327f565b60006118cd836112c6565b9050806001600160a01b0316846001600160a01b031614806119085750836001600160a01b03166118fd84610a29565b6001600160a01b0316145b8061193857506001600160a01b0380821660009081526005602090815260408083209388168352929052205460ff165b949350505050565b826001600160a01b0316611953826112c6565b6001600160a01b0316146119795760405162461bcd60e51b8152600401610a5d9061330f565b6001600160a01b03821661199f5760405162461bcd60e51b8152600401610a5d9061324f565b6119aa838383611e82565b6119b5600082611820565b6001600160a01b03831660009081526003602052604081208054600192906119de908490613414565b90915550506001600160a01b0382166000908152600360205260408120805460019290611a0c9084906133e8565b909155505060008181526002602052604080822080546001600160a01b0319166001600160a01b0386811691821790925591518493918716917fddf252ad1be2c89b69c2b068fc378daa952ba7f163c4a11628f55a4df523b3ef91a4505050565b60005b8251811015611571576000611a8460085490565b9050601a848381518110611aa857634e487b7160e01b600052603260045260246000fd5b60209081029190910181015182546001810184556000938452928290208151611ada949190910192919091019061233c565b5060186040518060e00160405280876001600160a01b03168152602001604051806020016040528060008152508152602001868581518110611b2c57634e487b7160e01b600052603260045260246000fd5b602002602001015181526020016001815260200160008152602001858581518110611b6757634e487b7160e01b600052603260045260246000fd5b6020908102919091018101518252600091810182905283546001808201865594835291819020835160079093020180546001600160a01b0319166001600160a01b0390931692909217825582810151805193949293611bcd93850192919091019061233c565b5060408201518051611be991600284019160209091019061233c565b50606082015181600301556080820151816004015560a0820151816005015560c082015181600601555050611c1e8582611f3a565b5080611c29816134ce565b915050611a70565b600a80546001600160a01b038381166001600160a01b0319831681179093556040519116919082907f8be0079c531659141344cd1fd0a4f28419497f9722a3daafe3b4186f6b6457e090600090a35050565b816001600160a01b0316836001600160a01b03161415611cb55760405162461bcd60e51b8152600401610a5d9061325f565b6001600160a01b0383811660008181526005602090815260408083209487168084529490915290819020805460ff1916851515179055517f17307eab39ab6107e8899845ad3d59bd9653f200f220920489ca2b5937696c3190611d199085906131f0565b60405180910390a3505050565b611d31848484611940565b611d3d84848484611f54565b6115715760405162461bcd60e51b8152600401610a5d9061321f565b6060601380546109a690613474565b606081611d8c5750506040805180820190915260018152600360fc1b602082015290565b8160005b8115611db65780611da0816134ce565b9150611daf9050600a83613400565b9150611d90565b60008167ffffffffffffffff811115611ddf57634e487b7160e01b600052604160045260246000fd5b6040519080825280601f01601f191660200182016040528015611e09576020820181803683370190505b5090505b841561193857611e1e600183613414565b9150611e2b600a866134e9565b611e369060306133e8565b60f81b818381518110611e5957634e487b7160e01b600052603260045260246000fd5b60200101906001600160f81b031916908160001a905350611e7b600a86613400565b9450611e0d565b6001600160a01b038316611edd57611ed881600880546000838152600960205260408120829055600182018355919091527ff3f7a9fe364faab93b216da50a3214154f22a0a2b415b23a84c8169e8b636ee30155565b611f00565b816001600160a01b0316836001600160a01b031614611f0057611f008382612061565b6001600160a01b038216611f1757610b03816120fe565b826001600160a01b0316826001600160a01b031614610b0357610b0382826121d7565b610ee082826040518060200160405280600081525061221b565b60006001600160a01b0384163b1561205657604051630a85bd0160e11b81526001600160a01b0385169063150b7a0290611f98903390899088908890600401613103565b602060405180830381600087803b158015611fb257600080fd5b505af1925050508015611fe2575060408051601f3d908101601f19168201909252611fdf918101906127ac565b60015b61203c573d808015612010576040519150601f19603f3d011682016040523d82523d6000602084013e612015565b606091505b5080516120345760405162461bcd60e51b8152600401610a5d9061321f565b805181602001fd5b6001600160e01b031916630a85bd0160e11b149050611938565b506001949350505050565b6000600161206e8461132a565b6120789190613414565b6000838152600760205260409020549091508082146120cb576001600160a01b03841660009081526006602090815260408083208584528252808320548484528184208190558352600790915290208190555b5060009182526007602090815260408084208490556001600160a01b039094168352600681528383209183525290812055565b60085460009061211090600190613414565b6000838152600960205260408120546008805493945090928490811061214657634e487b7160e01b600052603260045260246000fd5b90600052602060002001549050806008838154811061217557634e487b7160e01b600052603260045260246000fd5b60009182526020808320909101929092558281526009909152604080822084905585825281205560088054806121bb57634e487b7160e01b600052603160045260246000fd5b6001900381819060005260206000200160009055905550505050565b60006121e28361132a565b6001600160a01b039093166000908152600660209081526040808320868452825280832085905593825260079052919091209190915550565b612225838361224e565b6122326000848484611f54565b610b035760405162461bcd60e51b8152600401610a5d9061321f565b6001600160a01b0382166122745760405162461bcd60e51b8152600401610a5d906132cf565b6000818152600260205260409020546001600160a01b0316156122a95760405162461bcd60e51b8152600401610a5d9061323f565b6122b560008383611e82565b6001600160a01b03821660009081526003602052604081208054600192906122de9084906133e8565b909155505060008181526002602052604080822080546001600160a01b0319166001600160a01b03861690811790915590518392907fddf252ad1be2c89b69c2b068fc378daa952ba7f163c4a11628f55a4df523b3ef908290a45050565b82805461234890613474565b90600052602060002090601f01602090048101928261236a57600085556123b0565b82601f1061238357805160ff19168380011785556123b0565b828001600101855582156123b0579182015b828111156123b0578251825591602001919060010190612395565b506123bc9291506123c0565b5090565b5b808211156123bc57600081556001016123c1565b60006123e86123e384613399565b61337d565b9050808382526020820190508285602086028201111561240757600080fd5b60005b8581101561244d57813567ffffffffffffffff81111561242957600080fd5b808601612436898261255a565b85525050602092830192919091019060010161240a565b5050509392505050565b60006124656123e384613399565b9050808382526020820190508285602086028201111561248457600080fd5b60005b8581101561244d578161249a888261257b565b8452506020928301929190910190600101612487565b60006124be6123e3846133bd565b9050828152602081018484840111156124d657600080fd5b61145a84828561343c565b80356108e581613555565b600082601f8301126124fd57600080fd5b81356119388482602086016123d5565b600082601f83011261251e57600080fd5b8135611938848260208601612457565b80356108e581613569565b80516108e581613569565b80356108e581613571565b80516108e581613571565b600082601f83011261256b57600080fd5b81356119388482602086016124b0565b80356108e581613581565b80516108e581613581565b6000602082840312156125a357600080fd5b600061193884846124e1565b600080604083850312156125c257600080fd5b60006125ce85856124e1565b92505060206125df858286016124e1565b9150509250929050565b6000806000606084860312156125fe57600080fd5b600061260a86866124e1565b935050602061261b868287016124e1565b925050604061262c8682870161257b565b9150509250925092565b6000806000806080858703121561264c57600080fd5b600061265887876124e1565b9450506020612669878288016124e1565b935050604061267a8782880161257b565b925050606085013567ffffffffffffffff81111561269757600080fd5b6126a38782880161255a565b91505092959194509250565b600080604083850312156126c257600080fd5b60006126ce85856124e1565b92505060206125df8582860161252e565b600080604083850312156126f257600080fd5b60006126fe85856124e1565b92505060206125df8582860161257b565b60008060006060848603121561272457600080fd5b833567ffffffffffffffff81111561273b57600080fd5b612747868287016124ec565b935050602084013567ffffffffffffffff81111561276457600080fd5b61261b8682870161250d565b60006020828403121561278257600080fd5b60006119388484612539565b6000602082840312156127a057600080fd5b60006119388484612544565b6000602082840312156127be57600080fd5b6000611938848461254f565b6000602082840312156127dc57600080fd5b813567ffffffffffffffff8111156127f357600080fd5b6119388482850161255a565b60006020828403121561281157600080fd5b6000611938848461257b565b60006020828403121561282f57600080fd5b60006119388484612586565b6000806040838503121561284e57600080fd5b60006126fe858561257b565b60006116f183836129a5565b60006116f18383612fed565b600061287e838361307d565b505060200190565b61288f8161342b565b82525050565b600061289f825190565b808452602084019350836020820285016128b98560200190565b8060005b858110156128ee57848403895281516128d6858261285a565b94506020830160209a909a01999250506001016128bd565b5091979650505050505050565b6000612905825190565b8084526020840193508360208202850161291f8560200190565b8060005b858110156128ee578484038952815161293c8582612866565b94506020830160209a909a0199925050600101612923565b600061295e825190565b80845260209384019383018060005b838110156129925781516129818882612872565b97506020830192505060010161296d565b509495945050505050565b80151561288f565b60006129af825190565b8084526020840193506129c6818560208601613448565b601f01601f19169290920192915050565b60006129e1825190565b6129ef818560208601613448565b9290920192915050565b60008154612a0681613474565b600182168015612a1d5760018114612a2e57612a5e565b60ff19831686528186019350612a5e565b60008581526020902060005b83811015612a5657815488820152600190910190602001612a3a565b838801955050505b50505092915050565b602b81526000602082017f455243373231456e756d657261626c653a206f776e657220696e646578206f7581526a74206f6620626f756e647360a81b602082015291505b5060400190565b603281526000602082017f4552433732313a207472616e7366657220746f206e6f6e20455243373231526581527131b2b4bb32b91034b6b83632b6b2b73a32b960711b60208201529150612aab565b602681526000602082017f4f776e61626c653a206e6577206f776e657220697320746865207a65726f206181526564647265737360d01b60208201529150612aab565b601c81526000602082017f4552433732313a20746f6b656e20616c7265616479206d696e74656400000000815291505b5060200190565b602481526000602082017f4552433732313a207472616e7366657220746f20746865207a65726f206164648152637265737360e01b60208201529150612aab565b601981526000602082017f4552433732313a20617070726f766520746f2063616c6c65720000000000000081529150612b74565b601c81526000602082017f596f752068617665206e6f7420656e6f7567682062616c616e63652e0000000081529150612b74565b602c81526000602082017f4552433732313a206f70657261746f7220717565727920666f72206e6f6e657881526b34b9ba32b73a103a37b5b2b760a11b60208201529150612aab565b603881526000602082017f4552433732313a20617070726f76652063616c6c6572206973206e6f74206f7781527f6e6572206e6f7220617070726f76656420666f7220616c6c000000000000000060208201529150612aab565b602a81526000602082017f4552433732313a2062616c616e636520717565727920666f7220746865207a65815269726f206164647265737360b01b60208201529150612aab565b602981526000602082017f4552433732313a206f776e657220717565727920666f72206e6f6e657869737481526832b73a103a37b5b2b760b91b60208201529150612aab565b60138152600060208201721d1c985b9cd9995c88111354c819985a5b1959606a1b81529150612b74565b60208082527f4552433732313a206d696e7420746f20746865207a65726f206164647265737391019081526000612b74565b601981526000602082017f4e6f206574686572206c65667420746f2077697468647261770000000000000081529150612b74565b602c81526000602082017f4552433732313a20617070726f76656420717565727920666f72206e6f6e657881526b34b9ba32b73a103a37b5b2b760a11b60208201529150612aab565b60208082527f4f776e61626c653a2063616c6c6572206973206e6f7420746865206f776e657291019081526000612b74565b602981526000602082017f4552433732313a207472616e73666572206f6620746f6b656e2074686174206981526839903737ba1037bbb760b91b60208201529150612aab565b602f81526000602082017f4552433732314d657461646174613a2055524920717565727920666f72206e6f81526e3732bc34b9ba32b73a103a37b5b2b760891b60208201529150612aab565b602181526000602082017f4552433732313a20617070726f76616c20746f2063757272656e74206f776e658152603960f91b60208201529150612aab565b601081526000602082016f2a3930b739b332b9103330b4b632b21760811b81529150612b74565b603181526000602082017f4552433732313a207472616e736665722063616c6c6572206973206e6f74206f8152701ddb995c881b9bdc88185c1c1c9bdd9959607a1b60208201529150612aab565b602c81526000602082017f455243373231456e756d657261626c653a20676c6f62616c20696e646578206f81526b7574206f6620626f756e647360a01b60208201529150612aab565b805160009060e08401906130018582612886565b506020830151848203602086015261301982826129a5565b9150506040830151848203604086015261303382826129a5565b9150506060830151613048606086018261307d565b50608083015161305b608086018261307d565b5060a083015161306e60a086018261307d565b5060c083015161145a60c08601825b8061288f565b600061308f82866129d7565b915061309b82856129d7565b91506130a782846129f9565b95945050505050565b6000816108e5565b60006130c4828461307d565b50602001919050565b602081016108e58284612886565b606081016130e98286612886565b6130f66020830185612886565b611938604083018461307d565b608081016131118287612886565b61311e6020830186612886565b61312b604083018561307d565b818103606083015261313d81846129a5565b9695505050505050565b60e08101613155828a612886565b818103602083015261316781896129a5565b9050818103604083015261317b81886129a5565b905061318a606083018761307d565b613197608083018661307d565b6131a460a083018561307d565b6131b160c083018461307d565b98975050505050505050565b602080825281016116f18184612895565b602080825281016116f181846128fb565b602080825281016116f18184612954565b602081016108e5828461299d565b602080825281016116f181846129a5565b602080825281016108e581612a67565b602080825281016108e581612ab2565b602080825281016108e581612b01565b602080825281016108e581612b44565b602080825281016108e581612b7b565b602080825281016108e581612bbc565b602080825281016108e581612bf0565b602080825281016108e581612c24565b602080825281016108e581612c6d565b602080825281016108e581612cc7565b602080825281016108e581612d0e565b602080825281016108e581612d54565b602080825281016108e581612d7e565b602080825281016108e581612db0565b602080825281016108e581612de4565b602080825281016108e581612e2d565b602080825281016108e581612e5f565b602080825281016108e581612ea5565b602080825281016108e581612ef1565b602080825281016108e581612f2f565b602080825281016108e581612f56565b602080825281016108e581612fa4565b602081016108e5828461307d565b600061338860405190565b905061339482826134a1565b919050565b600067ffffffffffffffff8211156133b3576133b361353f565b5060209081020190565b600067ffffffffffffffff8211156133d7576133d761353f565b601f19601f83011660200192915050565b600082198211156133fb576133fb6134fd565b500190565b60008261340f5761340f613513565b500490565b600082821015613426576134266134fd565b500390565b60006001600160a01b0382166108e5565b82818337506000910152565b60005b8381101561346357818101518382015260200161344b565b838111156115715750506000910152565b60028104600182168061348857607f821691505b6020821081141561349b5761349b613529565b50919050565b601f19601f830116810181811067ffffffffffffffff821117156134c7576134c761353f565b6040525050565b60006000198214156134e2576134e26134fd565b5060010190565b6000826134f8576134f8613513565b500690565b634e487b7160e01b600052601160045260246000fd5b634e487b7160e01b600052601260045260246000fd5b634e487b7160e01b600052602260045260246000fd5b634e487b7160e01b600052604160045260246000fd5b61355e8161342b565b81146117cd57600080fd5b80151561355e565b6001600160e01b0319811661355e565b8061355e56fea2646970667358221220ef4169298aefebebfa094131388c0560139e1f8b2fbf679d494a49b655a9c13b64736f6c63430008040033",
  "immutableReferences": {},
  "source": "//SPDX-License-Identifier: Unlicense\r\npragma solidity ^0.8.4;\r\n\r\nimport \"@openzeppelin/contracts/token/ERC20/IERC20.sol\";\r\nimport \"@openzeppelin/contracts/utils/Counters.sol\";\r\nimport \"@openzeppelin/contracts/access/Ownable.sol\";\r\nimport \"@openzeppelin/contracts/utils/math/SafeMath.sol\";\r\nimport \"@openzeppelin/contracts/token/ERC721/extensions/ERC721Enumerable.sol\";\r\n\r\ncontract DearMonster is ERC721Enumerable, Ownable {\r\n    using SafeMath for uint256;\r\n    using Strings for uint256;\r\n    using Counters for Counters.Counter;\r\n\r\n    uint256 public _tokenIds;\r\n//    Counters.Counter public _tokenIds;\r\n\r\n    IERC20 DMS;\r\n\r\n    uint256 public MAX_SUPPLY = 30;\r\n    uint256 maxSupply = 30;\r\n    uint256 maxPurchaseLimit = 10;\r\n    uint256 price = 14800;\r\n\r\n    uint256 public constant MAX_PER_MINT = 1;\r\n\r\n    bool public presaleActive = true;\r\n    bool public isRevealed = false;\r\n\r\n    uint256 private tokenPrice = 1 * 10000 * 10 ** 18; // 10000 DMS\r\n\r\n    string public baseTokenURI;\r\n    string public monsterImageURI;\r\n    string public caveImageURI;\r\n\r\n    string private baseImageExtension = \".png\";\r\n    string private baseExtension = \".json\";\r\n\r\n\r\n    struct Attribute {\r\n        address owner;\r\n        string name;\r\n        string element;\r\n        uint256 level;\r\n        uint256 exp;\r\n        uint256 star;\r\n        uint256 energy;\r\n    }\r\n\r\n    Attribute [] public attributes;\r\n    Attribute [] public returnAttributes;\r\n    string [] public elementPath;\r\n//    mapping(uint256 => Attribute) public attributes;\r\n\r\n\r\n    constructor(\r\n        string memory _monsterImageURI,\r\n        string memory _caveImageURI,\r\n        address _dmsAddress\r\n    ) ERC721(\"DearMonsterCharacter\", \"DMC\") {\r\n        setMonsterImageURI(_monsterImageURI);\r\n        setBaseURI(_monsterImageURI);\r\n        setCaveImageURI(_caveImageURI);\r\n        DMS = IERC20(_dmsAddress);\r\n    }\r\n\r\n    // function reserveNFTs() public onlyOwner {\r\n    //     uint256 totalMinted = _tokenIds.current();\r\n    //     require(totalMinted.add(10) < MAX_SUPPLY, \"Not enough NFTs\");\r\n    //     for (uint256 i = 0; i < 10; i++) {\r\n    //         _mintSingleNFT();\r\n    //     }\r\n    // }\r\n\r\n    // Setting Image URIs\r\n    function setMonsterImageURI(string memory _monsterImageURI) public onlyOwner {\r\n        monsterImageURI = _monsterImageURI;\r\n    }\r\n\r\n    function setMaxSupply(uint256 _maxSupply) public onlyOwner {\r\n        maxSupply = _maxSupply;\r\n    }\r\n\r\n    function getMaxSupply() public view returns(uint256) {\r\n        return maxSupply;\r\n    }\r\n\r\n    function setMaxPurchaseLimit(uint256 _maxPurchaseLimit) public onlyOwner {\r\n        maxPurchaseLimit = _maxPurchaseLimit;\r\n    }\r\n\r\n    function getMaxPurchaseLimit() public view returns(uint256) {\r\n        return maxPurchaseLimit;\r\n    }    \r\n\r\n    function setPrice(uint256 _price) public onlyOwner {\r\n        price = _price;\r\n    }\r\n\r\n    function getPrice() public view returns(uint256) {\r\n        return price;\r\n    }    \r\n\r\n    function checkMaxSupply() public view returns(bool) {\r\n        return totalSupply() >= maxSupply;\r\n    }\r\n\r\n    function setCaveImageURI(string memory _caveImageURI) public onlyOwner {\r\n        caveImageURI = _caveImageURI;\r\n    }\r\n\r\n    function _baseURI() internal view virtual override returns (string memory) {\r\n        return baseTokenURI;\r\n    }\r\n\r\n    function setBaseURI(string memory _baseTokenURI) public onlyOwner {\r\n        baseTokenURI = _baseTokenURI;\r\n    }\r\n\r\n    function tokenURI(uint256 tokenId)\r\n        public\r\n        view\r\n        virtual\r\n        override\r\n        returns (string memory)\r\n    {\r\n        require(\r\n            _exists(tokenId),\r\n            \"ERC721Metadata: URI query for nonexistent token\"\r\n        );\r\n\r\n        if (isRevealed == false) {\r\n            return caveImageURI;\r\n        }\r\n\r\n        string memory currentBaseURI = _baseURI();\r\n        return\r\n            bytes(currentBaseURI).length > 0\r\n                ? string(\r\n                    abi.encodePacked(\r\n                        currentBaseURI,\r\n                        tokenId.toString(),\r\n                        baseImageExtension\r\n                    )\r\n                )\r\n                : \"\";\r\n    }\r\n\r\n    function getTokenIds() public view returns(uint256){\r\n        return _tokenIds;\r\n    }\r\n    function mintDearMonster(string [] memory element, uint[] memory ratings, uint256 amount) public{\r\n        // uint256 totalMinted = totalSupply();\r\n        // require(totalMinted.add(1) <= MAX_SUPPLY, \"Not enough NFTs!\");\r\n        require(\r\n            DMS.balanceOf(msg.sender) >= amount,\r\n            \"You have not enough balance.\"\r\n        );\r\n\r\n        require(\r\n            DMS.transferFrom(msg.sender, address(this), amount ) == true,\r\n            \"transfer DMS failed\"\r\n        );\r\n\r\n        //DMS.transfer(address(this), amount);\r\n        _mintSingleNFT(msg.sender, element, ratings);\r\n    }\r\n\r\n    function _mintSingleNFT(address to, string [] memory element, uint [] memory ratings) private {\r\n       // require(totalSupply() < MAX_SUPPLY, \"All NFTs are minted already\");\r\n        // uint256 newTokenID = totalSupply();\r\n        // _tokenIds.add(1);\r\n        for (uint i = 0 ; i < element.length; i++ ){\r\n            uint256 newTokenID = totalSupply();\r\n            elementPath.push(element[i]);\r\n            attributes.push(Attribute({ owner: to, name: \"\", element: element[i],  level : 1, exp: 0, star: ratings[i], energy: 0 }));\r\n            _safeMint(to, newTokenID);\r\n        }\r\n        // _safeMint(to, newTokenID);\r\n    }\r\n    function getElementPath() public view returns(string [] memory){\r\n        return elementPath;        \r\n    }\r\n\r\n    function getAttributes() public view returns(Attribute [] memory){\r\n\r\n        // Attribute[] memory let1;\r\n        // uint length = 0;\r\n        // returnAttributes = [];\r\n        // for(uint i = 0; i < totalSupply(); i++){\r\n        //     if(attributes[i].owner == msg.sender)\r\n        //     {\r\n        //         // let1[length] = attributes[i];\r\n        //         returnAttributes.push(attributes[i]);\r\n        //         // length.add(1);\r\n        //     }\r\n        // }\r\n        // return returnAttributes;\r\n        return attributes;\r\n    }\r\n\r\n    function getOwner() public view returns(address) {\r\n        return owner();\r\n    }\r\n\r\n    \r\n\r\n    // function mintDearMonster(uint256 _count) public {\r\n    //     uint256 totalMinted = totalSupply();\r\n    //     require(_count == 1, \"You can not mint more than 1 NFT\");\r\n    //     require(totalMinted.add(_count) <= MAX_SUPPLY, \"Not enough NFTs!\");\r\n    //     require(\r\n    //         DMS.balanceOf(msg.sender) >= tokenPrice * _count,\r\n    //         \"You have not enough balance.\"\r\n    //     );\r\n\r\n    //     DMS.transferFrom(msg.sender, address(this), tokenPrice);\r\n    //     _mintSingleNFT(msg.sender);\r\n    // }\r\n\r\n    function randomImageId(uint256 limit) public view returns (uint256) {\r\n        return\r\n            uint8(\r\n                uint256(keccak256(abi.encodePacked(block.timestamp))) % (limit)\r\n            );\r\n    }\r\n\r\n    // function getAttributes(uint256 _tokenId) external view returns (Attributes memory) {\r\n    //     return attributes[_tokenId];\r\n    // }\r\n\r\n    function setEnergy(uint256 _tokenId, uint256 _energy) public {\r\n        attributes[_tokenId].energy = _energy;\r\n    }\r\n\r\n    function toggleReveal() external onlyOwner {\r\n        isRevealed = !isRevealed;\r\n    }\r\n\r\n    function tokensOfOwner(address _owner)\r\n        external\r\n        view\r\n        returns (uint256[] memory)\r\n    {\r\n        uint256 tokenCount = balanceOf(_owner);\r\n        uint256[] memory tokensId = new uint256[](tokenCount);\r\n        for (uint256 i = 0; i < tokenCount; i++) {\r\n            tokensId[i] = tokenOfOwnerByIndex(_owner, i);\r\n        }\r\n\r\n        return tokensId;\r\n    }\r\n\r\n    function withdraw() public payable onlyOwner {\r\n        uint256 balance = address(this).balance;\r\n        require(balance > 0, \"No ether left to withdraw\");\r\n        (bool success, ) = (msg.sender).call{value: balance}(\"\");\r\n        require(success, \"Transfer failed.\");\r\n    }\r\n}",
  "sourcePath": "D:\\Work\\Work_2021\\2021_12\\Hunter_blockchain\\DearMonster\\contracts\\DearMonster.sol",
  "compiler": {
    "name": "solc",
    "version": "0.8.4+commit.c7e474f2.Emscripten.clang"
  },
  "schemaVersion": "3.4.4",
  "updatedAt": "2022-01-05T03:56:17.037Z",
  "networkType": "ethereum",
  "devdoc": {
    "kind": "dev",
    "methods": {
      "approve(address,uint256)": {
        "details": "See {IERC721-approve}."
      },
      "balanceOf(address)": {
        "details": "See {IERC721-balanceOf}."
      },
      "getApproved(uint256)": {
        "details": "See {IERC721-getApproved}."
      },
      "isApprovedForAll(address,address)": {
        "details": "See {IERC721-isApprovedForAll}."
      },
      "name()": {
        "details": "See {IERC721Metadata-name}."
      },
      "owner()": {
        "details": "Returns the address of the current owner."
      },
      "ownerOf(uint256)": {
        "details": "See {IERC721-ownerOf}."
      },
      "renounceOwnership()": {
        "details": "Leaves the contract without owner. It will not be possible to call `onlyOwner` functions anymore. Can only be called by the current owner. NOTE: Renouncing ownership will leave the contract without an owner, thereby removing any functionality that is only available to the owner."
      },
      "safeTransferFrom(address,address,uint256)": {
        "details": "See {IERC721-safeTransferFrom}."
      },
      "safeTransferFrom(address,address,uint256,bytes)": {
        "details": "See {IERC721-safeTransferFrom}."
      },
      "setApprovalForAll(address,bool)": {
        "details": "See {IERC721-setApprovalForAll}."
      },
      "supportsInterface(bytes4)": {
        "details": "See {IERC165-supportsInterface}."
      },
      "symbol()": {
        "details": "See {IERC721Metadata-symbol}."
      },
      "tokenByIndex(uint256)": {
        "details": "See {IERC721Enumerable-tokenByIndex}."
      },
      "tokenOfOwnerByIndex(address,uint256)": {
        "details": "See {IERC721Enumerable-tokenOfOwnerByIndex}."
      },
      "tokenURI(uint256)": {
        "details": "See {IERC721Metadata-tokenURI}."
      },
      "totalSupply()": {
        "details": "See {IERC721Enumerable-totalSupply}."
      },
      "transferFrom(address,address,uint256)": {
        "details": "See {IERC721-transferFrom}."
      },
      "transferOwnership(address)": {
        "details": "Transfers ownership of the contract to a new account (`newOwner`). Can only be called by the current owner."
      }
    },
    "version": 1
  },
  "userdoc": {
    "kind": "user",
    "methods": {},
    "version": 1
  }
}