{
  "contractName": "DMS",
  "abi": [
    {
      "inputs": [],
      "stateMutability": "nonpayable",
      "type": "constructor"
    },
    {
      "anonymous": false,
      "inputs": [
        {
          "indexed": true,
          "internalType": "address",
          "name": "owner",
          "type": "address"
        },
        {
          "indexed": true,
          "internalType": "address",
          "name": "spender",
          "type": "address"
        },
        {
          "indexed": false,
          "internalType": "uint256",
          "name": "value",
          "type": "uint256"
        }
      ],
      "name": "Approval",
      "type": "event"
    },
    {
      "anonymous": false,
      "inputs": [
        {
          "indexed": true,
          "internalType": "address",
          "name": "previousOwner",
          "type": "address"
        },
        {
          "indexed": true,
          "internalType": "address",
          "name": "newOwner",
          "type": "address"
        }
      ],
      "name": "OwnershipTransferred",
      "type": "event"
    },
    {
      "anonymous": false,
      "inputs": [
        {
          "indexed": true,
          "internalType": "address",
          "name": "from",
          "type": "address"
        },
        {
          "indexed": true,
          "internalType": "address",
          "name": "to",
          "type": "address"
        },
        {
          "indexed": false,
          "internalType": "uint256",
          "name": "value",
          "type": "uint256"
        }
      ],
      "name": "Transfer",
      "type": "event"
    },
    {
      "inputs": [],
      "name": "_burnFee",
      "outputs": [
        {
          "internalType": "uint256",
          "name": "",
          "type": "uint256"
        }
      ],
      "stateMutability": "view",
      "type": "function"
    },
    {
      "inputs": [],
      "name": "_devFee",
      "outputs": [
        {
          "internalType": "uint256",
          "name": "",
          "type": "uint256"
        }
      ],
      "stateMutability": "view",
      "type": "function"
    },
    {
      "inputs": [],
      "name": "_maxTransferRate",
      "outputs": [
        {
          "internalType": "uint256",
          "name": "",
          "type": "uint256"
        }
      ],
      "stateMutability": "view",
      "type": "function"
    },
    {
      "inputs": [],
      "name": "_rewardFee",
      "outputs": [
        {
          "internalType": "uint256",
          "name": "",
          "type": "uint256"
        }
      ],
      "stateMutability": "view",
      "type": "function"
    },
    {
      "inputs": [],
      "name": "_taxFee",
      "outputs": [
        {
          "internalType": "uint256",
          "name": "",
          "type": "uint256"
        }
      ],
      "stateMutability": "view",
      "type": "function"
    },
    {
      "inputs": [],
      "name": "devWallet",
      "outputs": [
        {
          "internalType": "address",
          "name": "",
          "type": "address"
        }
      ],
      "stateMutability": "view",
      "type": "function"
    },
    {
      "inputs": [],
      "name": "owner",
      "outputs": [
        {
          "internalType": "address",
          "name": "",
          "type": "address"
        }
      ],
      "stateMutability": "view",
      "type": "function"
    },
    {
      "inputs": [],
      "name": "renounceOwnership",
      "outputs": [],
      "stateMutability": "nonpayable",
      "type": "function"
    },
    {
      "inputs": [],
      "name": "rewardWallet",
      "outputs": [
        {
          "internalType": "address",
          "name": "",
          "type": "address"
        }
      ],
      "stateMutability": "view",
      "type": "function"
    },
    {
      "inputs": [
        {
          "internalType": "address",
          "name": "newOwner",
          "type": "address"
        }
      ],
      "name": "transferOwnership",
      "outputs": [],
      "stateMutability": "nonpayable",
      "type": "function"
    },
    {
      "inputs": [],
      "name": "name",
      "outputs": [
        {
          "internalType": "string",
          "name": "",
          "type": "string"
        }
      ],
      "stateMutability": "view",
      "type": "function"
    },
    {
      "inputs": [],
      "name": "symbol",
      "outputs": [
        {
          "internalType": "string",
          "name": "",
          "type": "string"
        }
      ],
      "stateMutability": "view",
      "type": "function"
    },
    {
      "inputs": [],
      "name": "decimals",
      "outputs": [
        {
          "internalType": "uint8",
          "name": "",
          "type": "uint8"
        }
      ],
      "stateMutability": "view",
      "type": "function"
    },
    {
      "inputs": [],
      "name": "totalSupply",
      "outputs": [
        {
          "internalType": "uint256",
          "name": "",
          "type": "uint256"
        }
      ],
      "stateMutability": "view",
      "type": "function"
    },
    {
      "inputs": [
        {
          "internalType": "address",
          "name": "account",
          "type": "address"
        }
      ],
      "name": "balanceOf",
      "outputs": [
        {
          "internalType": "uint256",
          "name": "",
          "type": "uint256"
        }
      ],
      "stateMutability": "view",
      "type": "function"
    },
    {
      "inputs": [
        {
          "internalType": "address",
          "name": "recipient",
          "type": "address"
        },
        {
          "internalType": "uint256",
          "name": "amount",
          "type": "uint256"
        }
      ],
      "name": "transfer",
      "outputs": [
        {
          "internalType": "bool",
          "name": "",
          "type": "bool"
        }
      ],
      "stateMutability": "nonpayable",
      "type": "function"
    },
    {
      "inputs": [
        {
          "internalType": "address",
          "name": "owner",
          "type": "address"
        },
        {
          "internalType": "address",
          "name": "spender",
          "type": "address"
        }
      ],
      "name": "allowance",
      "outputs": [
        {
          "internalType": "uint256",
          "name": "",
          "type": "uint256"
        }
      ],
      "stateMutability": "view",
      "type": "function"
    },
    {
      "inputs": [
        {
          "internalType": "address",
          "name": "spender",
          "type": "address"
        },
        {
          "internalType": "uint256",
          "name": "amount",
          "type": "uint256"
        }
      ],
      "name": "approve",
      "outputs": [
        {
          "internalType": "bool",
          "name": "",
          "type": "bool"
        }
      ],
      "stateMutability": "nonpayable",
      "type": "function"
    },
    {
      "inputs": [
        {
          "internalType": "address",
          "name": "sender",
          "type": "address"
        },
        {
          "internalType": "address",
          "name": "recipient",
          "type": "address"
        },
        {
          "internalType": "uint256",
          "name": "amount",
          "type": "uint256"
        }
      ],
      "name": "transferFrom",
      "outputs": [
        {
          "internalType": "bool",
          "name": "",
          "type": "bool"
        }
      ],
      "stateMutability": "nonpayable",
      "type": "function"
    },
    {
      "inputs": [
        {
          "internalType": "address",
          "name": "spender",
          "type": "address"
        },
        {
          "internalType": "uint256",
          "name": "addedValue",
          "type": "uint256"
        }
      ],
      "name": "increaseAllowance",
      "outputs": [
        {
          "internalType": "bool",
          "name": "",
          "type": "bool"
        }
      ],
      "stateMutability": "nonpayable",
      "type": "function"
    },
    {
      "inputs": [
        {
          "internalType": "address",
          "name": "spender",
          "type": "address"
        },
        {
          "internalType": "uint256",
          "name": "subtractedValue",
          "type": "uint256"
        }
      ],
      "name": "decreaseAllowance",
      "outputs": [
        {
          "internalType": "bool",
          "name": "",
          "type": "bool"
        }
      ],
      "stateMutability": "nonpayable",
      "type": "function"
    },
    {
      "inputs": [
        {
          "internalType": "address",
          "name": "account",
          "type": "address"
        }
      ],
      "name": "isExcluded",
      "outputs": [
        {
          "internalType": "bool",
          "name": "",
          "type": "bool"
        }
      ],
      "stateMutability": "view",
      "type": "function"
    },
    {
      "inputs": [],
      "name": "totalFees",
      "outputs": [
        {
          "internalType": "uint256",
          "name": "",
          "type": "uint256"
        }
      ],
      "stateMutability": "view",
      "type": "function"
    },
    {
      "inputs": [],
      "name": "totalBurn",
      "outputs": [
        {
          "internalType": "uint256",
          "name": "",
          "type": "uint256"
        }
      ],
      "stateMutability": "view",
      "type": "function"
    },
    {
      "inputs": [
        {
          "internalType": "uint256",
          "name": "tAmount",
          "type": "uint256"
        }
      ],
      "name": "deliver",
      "outputs": [],
      "stateMutability": "nonpayable",
      "type": "function"
    },
    {
      "inputs": [
        {
          "internalType": "uint256",
          "name": "tAmount",
          "type": "uint256"
        },
        {
          "internalType": "bool",
          "name": "deductTransferFee",
          "type": "bool"
        }
      ],
      "name": "reflectionFromToken",
      "outputs": [
        {
          "internalType": "uint256",
          "name": "",
          "type": "uint256"
        }
      ],
      "stateMutability": "view",
      "type": "function"
    },
    {
      "inputs": [
        {
          "internalType": "uint256",
          "name": "rAmount",
          "type": "uint256"
        }
      ],
      "name": "tokenFromReflection",
      "outputs": [
        {
          "internalType": "uint256",
          "name": "",
          "type": "uint256"
        }
      ],
      "stateMutability": "view",
      "type": "function"
    },
    {
      "inputs": [
        {
          "internalType": "address",
          "name": "account",
          "type": "address"
        }
      ],
      "name": "excludeAccount",
      "outputs": [],
      "stateMutability": "nonpayable",
      "type": "function"
    },
    {
      "inputs": [
        {
          "internalType": "address",
          "name": "account",
          "type": "address"
        }
      ],
      "name": "includeAccount",
      "outputs": [],
      "stateMutability": "nonpayable",
      "type": "function"
    },
    {
      "inputs": [
        {
          "internalType": "uint256",
          "name": "taxFee",
          "type": "uint256"
        }
      ],
      "name": "_setTaxFee",
      "outputs": [],
      "stateMutability": "nonpayable",
      "type": "function"
    },
    {
      "inputs": [
        {
          "internalType": "uint256",
          "name": "burnFee",
          "type": "uint256"
        }
      ],
      "name": "_setBurnFee",
      "outputs": [],
      "stateMutability": "nonpayable",
      "type": "function"
    },
    {
      "inputs": [
        {
          "internalType": "uint256",
          "name": "devFee",
          "type": "uint256"
        }
      ],
      "name": "_setDevFee",
      "outputs": [],
      "stateMutability": "nonpayable",
      "type": "function"
    },
    {
      "inputs": [
        {
          "internalType": "uint256",
          "name": "rewardFee",
          "type": "uint256"
        }
      ],
      "name": "_setRewardFee",
      "outputs": [],
      "stateMutability": "nonpayable",
      "type": "function"
    },
    {
      "inputs": [
        {
          "internalType": "uint256",
          "name": "maxTransferRate",
          "type": "uint256"
        }
      ],
      "name": "_setMaxTransferRate",
      "outputs": [],
      "stateMutability": "nonpayable",
      "type": "function"
    }
  ],
  "bytecode": "0x6080604052600680546001600160a01b03199081167324425b334dcdb9e9e4e81364cc4414527d7fe460179091556007805490911673643974e5d886a57ec6f1bd26986b8cdacb7c5c3e1790556b033b2e3c9fd0803ce800000060088190556200006c906000196200029c565b6200007a9060001962000251565b60095560408051808201909152600c8082526b446561724d6f6e737465727360a01b6020909201918252620000b09181620001ab565b5060408051808201909152600380825262444d5360e81b6020909201918252620000dd91600d91620001ab565b50600e805460ff19166012908117909155600f8055600a6010556005601181905560009091556013553480156200011357600080fd5b50600080546001600160a01b031916339081178255604051909182917f8be0079c531659141344cd1fd0a4f28419497f9722a3daafe3b4186f6b6457e0908290a350600954336000818152600160209081526040808320949094556008549351938452919290917fddf252ad1be2c89b69c2b068fc378daa952ba7f163c4a11628f55a4df523b3ef910160405180910390a3620002f5565b828054620001b9906200026b565b90600052602060002090601f016020900481019282620001dd576000855562000228565b82601f10620001f857805160ff191683800117855562000228565b8280016001018555821562000228579182015b82811115620002285782518255916020019190600101906200020b565b50620002369291506200023a565b5090565b5b808211156200023657600081556001016200023b565b600082821015620002665762000266620002b3565b500390565b6002810460018216806200028057607f821691505b60208210811415620002965762000296620002df565b50919050565b600082620002ae57620002ae620002c9565b500690565b634e487b7160e01b600052601160045260246000fd5b634e487b7160e01b600052601260045260246000fd5b634e487b7160e01b600052602260045260246000fd5b611f0c80620003056000396000f3fe608060405234801561001057600080fd5b50600436106102065760003560e01c806370a082311161011a578063c0b0fda2116100ad578063f2fde38b1161007c578063f2fde38b1461043c578063f5dec2b11461044f578063f84354f114610458578063f92beaad1461046b578063fb75b2c71461047e57600080fd5b8063c0b0fda2146103bb578063cba0e996146103c4578063dd62ed3e146103f0578063f2cc0c181461042957600080fd5b806395d89b41116100e957806395d89b4114610384578063a457c2d71461038c578063a9059cbb1461039f578063aa45026b146103b257600080fd5b806370a082311461033c578063715018a61461034f5780638da5cb5b146103575780638ea5220f1461037157600080fd5b8063395093511161019d5780633c9f861d1161016c5780633c9f861d146102f25780634549b039146102fa57806351fde4bb1461030d5780635880b8731461031657806359f1707d1461032957600080fd5b806339509351146102b05780633b124fe7146102c35780633b6b1961146102cc5780633bd5d173146102df57600080fd5b80631bada20e116101d95780631bada20e1461026257806323b872dd146102775780632d8381191461028a578063313ce5671461029d57600080fd5b806306fdde031461020b578063095ea7b31461022957806313114a9d1461024957806318160ddd1461025a575b600080fd5b610213610491565b6040516102209190611c1a565b60405180910390f35b61023c610237366004611777565b610523565b6040516102209190611c0c565b600a545b6040516102209190611d1b565b60085461024d565b6102756102703660046117a7565b61053a565b005b61023c61028536600461172a565b610572565b61024d6102983660046117a7565b6105db565b600e5460ff166040516102209190611d29565b61023c6102be366004611777565b61061c565b61024d600f5481565b6102756102da3660046117a7565b610652565b6102756102ed3660046117a7565b610681565b600b5461024d565b61024d6103083660046117c5565b610724565b61024d60125481565b6102756103243660046117a7565b61077f565b6102756103373660046117a7565b6107ae565b61024d61034a3660046116ca565b6107dd565b61027561083c565b6000546001600160a01b03165b6040516102209190611bfe565b600654610364906001600160a01b031681565b6102136108b0565b61023c61039a366004611777565b6108bf565b61023c6103ad366004611777565b61090e565b61024d60115481565b61024d60105481565b61023c6103d23660046116ca565b6001600160a01b031660009081526004602052604090205460ff1690565b61024d6103fe3660046116f0565b6001600160a01b03918216600090815260036020908152604080832093909416825291909152205490565b6102756104373660046116ca565b61091b565b61027561044a3660046116ca565b610a7b565b61024d60135481565b6102756104663660046116ca565b610b26565b6102756104793660046117a7565b610ce5565b600754610364906001600160a01b031681565b6060600c80546104a090611dda565b80601f01602080910402602001604051908101604052809291908181526020018280546104cc90611dda565b80156105195780601f106104ee57610100808354040283529160200191610519565b820191906000526020600020905b8154815290600101906020018083116104fc57829003601f168201915b5050505050905090565b6000610530338484610d14565b5060015b92915050565b6000546001600160a01b0316331461056d5760405162461bcd60e51b815260040161056490611cbb565b60405180910390fd5b601255565b600061057f848484610dc8565b6105d184336105cc85604051806060016040528060288152602001611e8a602891396001600160a01b038a1660009081526003602090815260408083203384529091529020549190610ffb565b610d14565b5060019392505050565b60006009548211156105ff5760405162461bcd60e51b815260040161056490611c3b565b6000610609611035565b90506106158382611058565b9392505050565b3360008181526003602090815260408083206001600160a01b038716845290915281205490916105309185906105cc908661109a565b6000546001600160a01b0316331461067c5760405162461bcd60e51b815260040161056490611cbb565b601055565b3360008181526004602052604090205460ff16156106b15760405162461bcd60e51b815260040161056490611d0b565b60006106bc836110c9565b505050506001600160a01b0383166000908152600160205260409020549091506106e6908261111d565b6001600160a01b03831660009081526001602052604090205560095461070c908261111d565b600955600a5461071c908461109a565b600a55505050565b60006008548311156107485760405162461bcd60e51b815260040161056490611c8b565b81610766576000610758846110c9565b509294506105349350505050565b6000610771846110c9565b509194506105349350505050565b6000546001600160a01b031633146107a95760405162461bcd60e51b815260040161056490611cbb565b600f55565b6000546001600160a01b031633146107d85760405162461bcd60e51b815260040161056490611cbb565b601155565b6001600160a01b03811660009081526004602052604081205460ff161561081a57506001600160a01b031660009081526002602052604090205490565b6001600160a01b038216600090815260016020526040902054610534906105db565b6000546001600160a01b031633146108665760405162461bcd60e51b815260040161056490611cbb565b600080546040516001600160a01b03909116907f8be0079c531659141344cd1fd0a4f28419497f9722a3daafe3b4186f6b6457e0908390a3600080546001600160a01b0319169055565b6060600d80546104a090611dda565b600061053033846105cc85604051806060016040528060258152602001611eb2602591393360009081526003602090815260408083206001600160a01b038d1684529091529020549190610ffb565b6000610530338484610dc8565b6000546001600160a01b031633146109455760405162461bcd60e51b815260040161056490611cbb565b737a250d5630b4cf539739df2c5dacb4c659f2488d6001600160a01b03821614156109825760405162461bcd60e51b815260040161056490611cfb565b6001600160a01b03811660009081526004602052604090205460ff16156109bb5760405162461bcd60e51b815260040161056490611c7b565b6001600160a01b03811660009081526001602052604090205415610a15576001600160a01b0381166000908152600160205260409020546109fb906105db565b6001600160a01b0382166000908152600260205260409020555b6001600160a01b03166000818152600460205260408120805460ff191660019081179091556005805491820181559091527f036b6384b5eca791c62761152d0c79bb0604c104a5fb6f4eb0703f3154bb3db00180546001600160a01b0319169091179055565b6000546001600160a01b03163314610aa55760405162461bcd60e51b815260040161056490611cbb565b6001600160a01b038116610acb5760405162461bcd60e51b815260040161056490611c4b565b600080546040516001600160a01b03808516939216917f8be0079c531659141344cd1fd0a4f28419497f9722a3daafe3b4186f6b6457e091a3600080546001600160a01b0319166001600160a01b0392909216919091179055565b6000546001600160a01b03163314610b505760405162461bcd60e51b815260040161056490611cbb565b6001600160a01b03811660009081526004602052604090205460ff16610b885760405162461bcd60e51b815260040161056490611c7b565b60005b600554811015610ce157816001600160a01b031660058281548110610bc057634e487b7160e01b600052603260045260246000fd5b6000918252602090912001546001600160a01b03161415610ccf5760058054610beb90600190611d82565b81548110610c0957634e487b7160e01b600052603260045260246000fd5b600091825260209091200154600580546001600160a01b039092169183908110610c4357634e487b7160e01b600052603260045260246000fd5b600091825260208083209190910180546001600160a01b0319166001600160a01b039485161790559184168152600282526040808220829055600490925220805460ff191690556005805480610ca957634e487b7160e01b600052603160045260246000fd5b600082815260209020810160001990810180546001600160a01b03191690550190555050565b80610cd981611e07565b915050610b8b565b5050565b6000546001600160a01b03163314610d0f5760405162461bcd60e51b815260040161056490611cbb565b601355565b6001600160a01b038316610d3a5760405162461bcd60e51b815260040161056490611ceb565b6001600160a01b038216610d605760405162461bcd60e51b815260040161056490611c5b565b6001600160a01b0380841660008181526003602090815260408083209487168084529490915290819020849055517f8c5be1e5ebec7d5bd14f71427d1e84f3dd0314c0f7b2291e5b200ac8c7c3b92590610dbb908590611d1b565b60405180910390a3505050565b6001600160a01b038316610dee5760405162461bcd60e51b815260040161056490611cdb565b6001600160a01b038216610e145760405162461bcd60e51b815260040161056490611c2b565b60008111610e345760405162461bcd60e51b815260040161056490611ccb565b6000546001600160a01b03848116911614801590610e6057506000546001600160a01b03838116911614155b15610ea757610e886103e8610e8260085460135461115f90919063ffffffff16565b90611058565b811115610ea75760405162461bcd60e51b815260040161056490611c9b565b6001600160a01b03831660009081526004602052604090205460ff168015610ee857506001600160a01b03821660009081526004602052604090205460ff16155b15610efd57610ef88383836111a4565b505050565b6001600160a01b03831660009081526004602052604090205460ff16158015610f3e57506001600160a01b03821660009081526004602052604090205460ff165b15610f4e57610ef88383836112a7565b6001600160a01b03831660009081526004602052604090205460ff16158015610f9057506001600160a01b03821660009081526004602052604090205460ff16155b15610fa057610ef883838361134d565b6001600160a01b03831660009081526004602052604090205460ff168015610fe057506001600160a01b03821660009081526004602052604090205460ff165b15610ff057610ef883838361138e565b610ef883838361134d565b6000818484111561101f5760405162461bcd60e51b81526004016105649190611c1a565b50600061102c8486611d82565b95945050505050565b60008060006110426113fe565b90925090506110518282611058565b9250505090565b600061061583836040518060400160405280601a81526020017f536166654d6174683a206469766973696f6e206279207a65726f0000000000008152506115b8565b6000806110a78385611d37565b9050838110156106155760405162461bcd60e51b815260040161056490611c6b565b6000806000806000806000806110e189600f546115e6565b92509250925060006110f1611035565b905060008060006111048d878787611659565b919f909e50909c50969a50949850949650505050505050565b600061061583836040518060400160405280601e81526020017f536166654d6174683a207375627472616374696f6e206f766572666c6f770000815250610ffb565b60008261116e57506000610534565b600061117a8385611d63565b9050826111878583611d4f565b146106155760405162461bcd60e51b815260040161056490611cab565b60008060008060006111b5866110c9565b6001600160a01b038d16600090815260026020526040902054949950929750909550935091506111e5908761111d565b6001600160a01b038916600090815260026020908152604080832093909355600190522054611214908661111d565b6001600160a01b03808a166000908152600160205260408082209390935590891681522054611243908561109a565b6001600160a01b0380891660008181526001602052604090819020939093559151908a16907fddf252ad1be2c89b69c2b068fc378daa952ba7f163c4a11628f55a4df523b3ef90611295908690611d1b565b60405180910390a35050505050505050565b60008060008060006112b8866110c9565b6001600160a01b038d16600090815260016020526040902054949950929750909550935091506112e8908661111d565b6001600160a01b03808a16600090815260016020908152604080832094909455918a1681526002909152205461131e908361109a565b6001600160a01b038816600090815260026020908152604080832093909355600190522054611243908561109a565b600080600080600061135e866110c9565b6001600160a01b038d1660009081526001602052604090205494995092975090955093509150611214908661111d565b600080600080600061139f866110c9565b6001600160a01b038d16600090815260026020526040902054949950929750909550935091506113cf908761111d565b6001600160a01b0389166000908152600260209081526040808320939093556001905220546112e8908661111d565b6009546008546000918291825b6005548110156115885782600160006005848154811061143b57634e487b7160e01b600052603260045260246000fd5b60009182526020808320909101546001600160a01b0316835282019290925260400190205411806114b4575081600260006005848154811061148d57634e487b7160e01b600052603260045260246000fd5b60009182526020808320909101546001600160a01b03168352820192909252604001902054115b156114ca57600954600854945094505050509091565b61151e60016000600584815481106114f257634e487b7160e01b600052603260045260246000fd5b60009182526020808320909101546001600160a01b03168352820192909252604001902054849061111d565b9250611574600260006005848154811061154857634e487b7160e01b600052603260045260246000fd5b60009182526020808320909101546001600160a01b03168352820192909252604001902054839061111d565b91508061158081611e07565b91505061140b565b5060085460095461159891611058565b8210156115af576009546008549350935050509091565b90939092509050565b600081836115d95760405162461bcd60e51b81526004016105649190611c1a565b50600061102c8486611d4f565b60008080806115fb6103e8610e82888861115f565b905060006116326103e8610e8261162b60125461162560115460105461109a90919063ffffffff16565b9061109a565b8a9061115f565b9050600061164a826116448a8661111d565b9061111d565b95509193509150509250925092565b6000808080611668888661115f565b90506000611676888761115f565b90506000611684888861115f565b9050600061169682611644868661111d565b939b939a50919850919650505050505050565b803561053481611e64565b803561053481611e7b565b803561053481611e83565b6000602082840312156116dc57600080fd5b60006116e884846116a9565b949350505050565b6000806040838503121561170357600080fd5b600061170f85856116a9565b9250506020611720858286016116a9565b9150509250929050565b60008060006060848603121561173f57600080fd5b600061174b86866116a9565b935050602061175c868287016116a9565b925050604061176d868287016116bf565b9150509250925092565b6000806040838503121561178a57600080fd5b600061179685856116a9565b9250506020611720858286016116bf565b6000602082840312156117b957600080fd5b60006116e884846116bf565b600080604083850312156117d857600080fd5b60006117e485856116bf565b9250506020611720858286016116b4565b6117fe81611d99565b82525050565b8015156117fe565b6000611816825190565b80845260208401935061182d818560208601611daa565b601f01601f19169290920192915050565b602381526000602082017f45524332303a207472616e7366657220746f20746865207a65726f206164647281526265737360e81b602082015291505b5060400190565b602a81526000602082017f416d6f756e74206d757374206265206c657373207468616e20746f74616c207281526965666c656374696f6e7360b01b6020820152915061187a565b602681526000602082017f4f776e61626c653a206e6577206f776e657220697320746865207a65726f206181526564647265737360d01b6020820152915061187a565b602281526000602082017f45524332303a20617070726f766520746f20746865207a65726f206164647265815261737360f01b6020820152915061187a565b601b81526000602082017f536166654d6174683a206164646974696f6e206f766572666c6f770000000000815291505b5060200190565b601b81526000602082017f4163636f756e7420697320616c7265616479206578636c7564656400000000008152915061197a565b601f81526000602082017f416d6f756e74206d757374206265206c657373207468616e20737570706c79008152915061197a565b602881526000602082017f5472616e7366657220616d6f756e74206578636565647320746865206d6178548152673c20b6b7bab73a1760c11b6020820152915061187a565b602181526000602082017f536166654d6174683a206d756c7469706c69636174696f6e206f766572666c6f8152607760f81b6020820152915061187a565b60208082527f4f776e61626c653a2063616c6c6572206973206e6f7420746865206f776e65729101908152600061197a565b602981526000602082017f5472616e7366657220616d6f756e74206d7573742062652067726561746572208152687468616e207a65726f60b81b6020820152915061187a565b602581526000602082017f45524332303a207472616e736665722066726f6d20746865207a65726f206164815264647265737360d81b6020820152915061187a565b602481526000602082017f45524332303a20617070726f76652066726f6d20746865207a65726f206164648152637265737360e01b6020820152915061187a565b602281526000602082017f57652063616e206e6f74206578636c75646520556e697377617020726f757465815261391760f11b6020820152915061187a565b602c81526000602082017f4578636c75646564206164647265737365732063616e6e6f742063616c6c207481526b3434b990333ab731ba34b7b760a11b6020820152915061187a565b806117fe565b60ff81166117fe565b6020810161053482846117f5565b602081016105348284611804565b60208082528101610615818461180c565b602080825281016105348161183e565b6020808252810161053481611881565b60208082528101610534816118c8565b602080825281016105348161190b565b602080825281016105348161194a565b6020808252810161053481611981565b60208082528101610534816119b5565b60208082528101610534816119e9565b6020808252810161053481611a2e565b6020808252810161053481611a6c565b6020808252810161053481611a9e565b6020808252810161053481611ae4565b6020808252810161053481611b26565b6020808252810161053481611b67565b6020808252810161053481611ba6565b602081016105348284611bef565b602081016105348284611bf5565b60008219821115611d4a57611d4a611e22565b500190565b600082611d5e57611d5e611e38565b500490565b6000816000190483118215151615611d7d57611d7d611e22565b500290565b600082821015611d9457611d94611e22565b500390565b60006001600160a01b038216610534565b60005b83811015611dc5578181015183820152602001611dad565b83811115611dd4576000848401525b50505050565b600281046001821680611dee57607f821691505b60208210811415611e0157611e01611e4e565b50919050565b6000600019821415611e1b57611e1b611e22565b5060010190565b634e487b7160e01b600052601160045260246000fd5b634e487b7160e01b600052601260045260246000fd5b634e487b7160e01b600052602260045260246000fd5b611e6d81611d99565b8114611e7857600080fd5b50565b801515611e6d565b80611e6d56fe45524332303a207472616e7366657220616d6f756e74206578636565647320616c6c6f77616e636545524332303a2064656372656173656420616c6c6f77616e63652062656c6f77207a65726fa26469706673582212209c00e7b905a350fd4418bd4b6e6afcd154a02398ec323b031b48e14b6fe86ea764736f6c63430008040033",
  "immutableReferences": {},
  "source": "//SPDX-License-Identifier: Unlicense\r\n/**\r\n *Submitted for verification at BscScan.com on 2021-11-03\r\n */\r\n\r\n/**\r\n *Submitted for verification at BscScan.com on 2021-11-03\r\n */\r\n\r\npragma solidity ^0.8.4;\r\n\r\nimport \"@openzeppelin/contracts/utils/Context.sol\";\r\n/**\r\n * @dev Interface of the ERC20 standard as defined in the EIP.\r\n */\r\ninterface IERC20 {\r\n    /**\r\n     * @dev Returns the amount of tokens in existence.\r\n     */\r\n    function totalSupply() external view returns (uint256);\r\n\r\n    /**\r\n     * @dev Returns the amount of tokens owned by `account`.\r\n     */\r\n    function balanceOf(address account) external view returns (uint256);\r\n\r\n    /**\r\n     * @dev Moves `amount` tokens from the caller's account to `recipient`.\r\n     *\r\n     * Returns a boolean value indicating whether the operation succeeded.\r\n     *\r\n     * Emits a {Transfer} event.\r\n     */\r\n    function transfer(address recipient, uint256 amount)\r\n        external\r\n        returns (bool);\r\n\r\n    /**\r\n     * @dev Returns the remaining number of tokens that `spender` will be\r\n     * allowed to spend on behalf of `owner` through {transferFrom}. This is\r\n     * zero by default.\r\n     *\r\n     * This value changes when {approve} or {transferFrom} are called.\r\n     */\r\n    function allowance(address owner, address spender)\r\n        external\r\n        view\r\n        returns (uint256);\r\n\r\n    /**\r\n     * @dev Sets `amount` as the allowance of `spender` over the caller's tokens.\r\n     *\r\n     * Returns a boolean value indicating whether the operation succeeded.\r\n     *\r\n     * IMPORTANT: Beware that changing an allowance with this method brings the risk\r\n     * that someone may use both the old and the new allowance by unfortunate\r\n     * transaction ordering. One possible solution to mitigate this race\r\n     * condition is to first reduce the spender's allowance to 0 and set the\r\n     * desired value afterwards:\r\n     * https://github.com/ethereum/EIPs/issues/20#issuecomment-263524729\r\n     *\r\n     * Emits an {Approval} event.\r\n     */\r\n    function approve(address spender, uint256 amount) external returns (bool);\r\n\r\n    /**\r\n     * @dev Moves `amount` tokens from `sender` to `recipient` using the\r\n     * allowance mechanism. `amount` is then deducted from the caller's\r\n     * allowance.\r\n     *\r\n     * Returns a boolean value indicating whether the operation succeeded.\r\n     *\r\n     * Emits a {Transfer} event.\r\n     */\r\n    function transferFrom(\r\n        address sender,\r\n        address recipient,\r\n        uint256 amount\r\n    ) external returns (bool);\r\n\r\n    /**\r\n     * @dev Emitted when `value` tokens are moved from one account (`from`) to\r\n     * another (`to`).\r\n     *\r\n     * Note that `value` may be zero.\r\n     */\r\n    event Transfer(address indexed from, address indexed to, uint256 value);\r\n\r\n    /**\r\n     * @dev Emitted when the allowance of a `spender` for an `owner` is set by\r\n     * a call to {approve}. `value` is the new allowance.\r\n     */\r\n    event Approval(\r\n        address indexed owner,\r\n        address indexed spender,\r\n        uint256 value\r\n    );\r\n}\r\n\r\n/**\r\n * @dev Wrappers over Solidity's arithmetic operations with added overflow\r\n * checks.\r\n *\r\n * Arithmetic operations in Solidity wrap on overflow. This can easily result\r\n * in bugs, because programmers usually assume that an overflow raises an\r\n * error, which is the standard behavior in high level programming languages.\r\n * `SafeMath` restores this intuition by reverting the transaction when an\r\n * operation overflows.\r\n *\r\n * Using this library instead of the unchecked operations eliminates an entire\r\n * class of bugs, so it's recommended to use it always.\r\n */\r\nlibrary SafeMath {\r\n    /**\r\n     * @dev Returns the addition of two unsigned integers, reverting on\r\n     * overflow.\r\n     *\r\n     * Counterpart to Solidity's `+` operator.\r\n     *\r\n     * Requirements:\r\n     *\r\n     * - Addition cannot overflow.\r\n     */\r\n    function add(uint256 a, uint256 b) internal pure returns (uint256) {\r\n        uint256 c = a + b;\r\n        require(c >= a, \"SafeMath: addition overflow\");\r\n\r\n        return c;\r\n    }\r\n\r\n    /**\r\n     * @dev Returns the subtraction of two unsigned integers, reverting on\r\n     * overflow (when the result is negative).\r\n     *\r\n     * Counterpart to Solidity's `-` operator.\r\n     *\r\n     * Requirements:\r\n     *\r\n     * - Subtraction cannot overflow.\r\n     */\r\n    function sub(uint256 a, uint256 b) internal pure returns (uint256) {\r\n        return sub(a, b, \"SafeMath: subtraction overflow\");\r\n    }\r\n\r\n    /**\r\n     * @dev Returns the subtraction of two unsigned integers, reverting with custom message on\r\n     * overflow (when the result is negative).\r\n     *\r\n     * Counterpart to Solidity's `-` operator.\r\n     *\r\n     * Requirements:\r\n     *\r\n     * - Subtraction cannot overflow.\r\n     */\r\n    function sub(\r\n        uint256 a,\r\n        uint256 b,\r\n        string memory errorMessage\r\n    ) internal pure returns (uint256) {\r\n        require(b <= a, errorMessage);\r\n        uint256 c = a - b;\r\n\r\n        return c;\r\n    }\r\n\r\n    /**\r\n     * @dev Returns the multiplication of two unsigned integers, reverting on\r\n     * overflow.\r\n     *\r\n     * Counterpart to Solidity's `*` operator.\r\n     *\r\n     * Requirements:\r\n     *\r\n     * - Multiplication cannot overflow.\r\n     */\r\n    function mul(uint256 a, uint256 b) internal pure returns (uint256) {\r\n        // Gas optimization: this is cheaper than requiring 'a' not being zero, but the\r\n        // benefit is lost if 'b' is also tested.\r\n        // See: https://github.com/OpenZeppelin/openzeppelin-contracts/pull/522\r\n        if (a == 0) {\r\n            return 0;\r\n        }\r\n\r\n        uint256 c = a * b;\r\n        require(c / a == b, \"SafeMath: multiplication overflow\");\r\n\r\n        return c;\r\n    }\r\n\r\n    /**\r\n     * @dev Returns the integer division of two unsigned integers. Reverts on\r\n     * division by zero. The result is rounded towards zero.\r\n     *\r\n     * Counterpart to Solidity's `/` operator. Note: this function uses a\r\n     * `revert` opcode (which leaves remaining gas untouched) while Solidity\r\n     * uses an invalid opcode to revert (consuming all remaining gas).\r\n     *\r\n     * Requirements:\r\n     *\r\n     * - The divisor cannot be zero.\r\n     */\r\n    function div(uint256 a, uint256 b) internal pure returns (uint256) {\r\n        return div(a, b, \"SafeMath: division by zero\");\r\n    }\r\n\r\n    /**\r\n     * @dev Returns the integer division of two unsigned integers. Reverts with custom message on\r\n     * division by zero. The result is rounded towards zero.\r\n     *\r\n     * Counterpart to Solidity's `/` operator. Note: this function uses a\r\n     * `revert` opcode (which leaves remaining gas untouched) while Solidity\r\n     * uses an invalid opcode to revert (consuming all remaining gas).\r\n     *\r\n     * Requirements:\r\n     *\r\n     * - The divisor cannot be zero.\r\n     */\r\n    function div(\r\n        uint256 a,\r\n        uint256 b,\r\n        string memory errorMessage\r\n    ) internal pure returns (uint256) {\r\n        require(b > 0, errorMessage);\r\n        uint256 c = a / b;\r\n        // assert(a == b * c + a % b); // There is no case in which this doesn't hold\r\n\r\n        return c;\r\n    }\r\n\r\n    /**\r\n     * @dev Returns the remainder of dividing two unsigned integers. (unsigned integer modulo),\r\n     * Reverts when dividing by zero.\r\n     *\r\n     * Counterpart to Solidity's `%` operator. This function uses a `revert`\r\n     * opcode (which leaves remaining gas untouched) while Solidity uses an\r\n     * invalid opcode to revert (consuming all remaining gas).\r\n     *\r\n     * Requirements:\r\n     *\r\n     * - The divisor cannot be zero.\r\n     */\r\n    function mod(uint256 a, uint256 b) internal pure returns (uint256) {\r\n        return mod(a, b, \"SafeMath: modulo by zero\");\r\n    }\r\n\r\n    /**\r\n     * @dev Returns the remainder of dividing two unsigned integers. (unsigned integer modulo),\r\n     * Reverts with custom message when dividing by zero.\r\n     *\r\n     * Counterpart to Solidity's `%` operator. This function uses a `revert`\r\n     * opcode (which leaves remaining gas untouched) while Solidity uses an\r\n     * invalid opcode to revert (consuming all remaining gas).\r\n     *\r\n     * Requirements:\r\n     *\r\n     * - The divisor cannot be zero.\r\n     */\r\n    function mod(\r\n        uint256 a,\r\n        uint256 b,\r\n        string memory errorMessage\r\n    ) internal pure returns (uint256) {\r\n        require(b != 0, errorMessage);\r\n        return a % b;\r\n    }\r\n}\r\n\r\n/**\r\n * @dev Collection of functions related to the address type\r\n */\r\nlibrary Address {\r\n    /**\r\n     * @dev Returns true if `account` is a contract.\r\n     *\r\n     * [IMPORTANT]\r\n     * ====\r\n     * It is unsafe to assume that an address for which this function returns\r\n     * false is an externally-owned account (EOA) and not a contract.\r\n     *\r\n     * Among others, `isContract` will return false for the following\r\n     * types of addresses:\r\n     *\r\n     *  - an externally-owned account\r\n     *  - a contract in construction\r\n     *  - an address where a contract will be created\r\n     *  - an address where a contract lived, but was destroyed\r\n     * ====\r\n     */\r\n    function isContract(address account) internal view returns (bool) {\r\n        // According to EIP-1052, 0x0 is the value returned for not-yet created accounts\r\n        // and 0xc5d2460186f7233c927e7db2dcc703c0e500b653ca82273b7bfad8045d85a470 is returned\r\n        // for accounts without code, i.e. `keccak256('')`\r\n        bytes32 codehash;\r\n        bytes32 accountHash = 0xc5d2460186f7233c927e7db2dcc703c0e500b653ca82273b7bfad8045d85a470;\r\n        // solhint-disable-next-line no-inline-assembly\r\n        assembly {\r\n            codehash := extcodehash(account)\r\n        }\r\n        return (codehash != accountHash && codehash != 0x0);\r\n    }\r\n\r\n    /**\r\n     * @dev Replacement for Solidity's `transfer`: sends `amount` wei to\r\n     * `recipient`, forwarding all available gas and reverting on errors.\r\n     *\r\n     * https://eips.ethereum.org/EIPS/eip-1884[EIP1884] increases the gas cost\r\n     * of certain opcodes, possibly making contracts go over the 2300 gas limit\r\n     * imposed by `transfer`, making them unable to receive funds via\r\n     * `transfer`. {sendValue} removes this limitation.\r\n     *\r\n     * https://diligence.consensys.net/posts/2019/09/stop-using-soliditys-transfer-now/[Learn more].\r\n     *\r\n     * IMPORTANT: because control is transferred to `recipient`, care must be\r\n     * taken to not create reentrancy vulnerabilities. Consider using\r\n     * {ReentrancyGuard} or the\r\n     * https://solidity.readthedocs.io/en/v0.5.11/security-considerations.html#use-the-checks-effects-interactions-pattern[checks-effects-interactions pattern].\r\n     */\r\n    function sendValue(address payable recipient, uint256 amount) internal {\r\n        require(\r\n            address(this).balance >= amount,\r\n            \"Address: insufficient balance\"\r\n        );\r\n\r\n        // solhint-disable-next-line avoid-low-level-calls, avoid-call-value\r\n        (bool success, ) = recipient.call{value: amount}(\"\");\r\n        require(\r\n            success,\r\n            \"Address: unable to send value, recipient may have reverted\"\r\n        );\r\n    }\r\n\r\n    /**\r\n     * @dev Performs a Solidity function call using a low level `call`. A\r\n     * plain`call` is an unsafe replacement for a function call: use this\r\n     * function instead.\r\n     *\r\n     * If `target` reverts with a revert reason, it is bubbled up by this\r\n     * function (like regular Solidity function calls).\r\n     *\r\n     * Returns the raw returned data. To convert to the expected return value,\r\n     * use https://solidity.readthedocs.io/en/latest/units-and-global-variables.html?highlight=abi.decode#abi-encoding-and-decoding-functions[`abi.decode`].\r\n     *\r\n     * Requirements:\r\n     *\r\n     * - `target` must be a contract.\r\n     * - calling `target` with `data` must not revert.\r\n     *\r\n     * _Available since v3.1._\r\n     */\r\n    function functionCall(address target, bytes memory data)\r\n        internal\r\n        returns (bytes memory)\r\n    {\r\n        return functionCall(target, data, \"Address: low-level call failed\");\r\n    }\r\n\r\n    /**\r\n     * @dev Same as {xref-Address-functionCall-address-bytes-}[`functionCall`], but with\r\n     * `errorMessage` as a fallback revert reason when `target` reverts.\r\n     *\r\n     * _Available since v3.1._\r\n     */\r\n    function functionCall(\r\n        address target,\r\n        bytes memory data,\r\n        string memory errorMessage\r\n    ) internal returns (bytes memory) {\r\n        return _functionCallWithValue(target, data, 0, errorMessage);\r\n    }\r\n\r\n    /**\r\n     * @dev Same as {xref-Address-functionCall-address-bytes-}[`functionCall`],\r\n     * but also transferring `value` wei to `target`.\r\n     *\r\n     * Requirements:\r\n     *\r\n     * - the calling contract must have an ETH balance of at least `value`.\r\n     * - the called Solidity function must be `payable`.\r\n     *\r\n     * _Available since v3.1._\r\n     */\r\n    function functionCallWithValue(\r\n        address target,\r\n        bytes memory data,\r\n        uint256 value\r\n    ) internal returns (bytes memory) {\r\n        return\r\n            functionCallWithValue(\r\n                target,\r\n                data,\r\n                value,\r\n                \"Address: low-level call with value failed\"\r\n            );\r\n    }\r\n\r\n    /**\r\n     * @dev Same as {xref-Address-functionCallWithValue-address-bytes-uint256-}[`functionCallWithValue`], but\r\n     * with `errorMessage` as a fallback revert reason when `target` reverts.\r\n     *\r\n     * _Available since v3.1._\r\n     */\r\n    function functionCallWithValue(\r\n        address target,\r\n        bytes memory data,\r\n        uint256 value,\r\n        string memory errorMessage\r\n    ) internal returns (bytes memory) {\r\n        require(\r\n            address(this).balance >= value,\r\n            \"Address: insufficient balance for call\"\r\n        );\r\n        return _functionCallWithValue(target, data, value, errorMessage);\r\n    }\r\n\r\n    function _functionCallWithValue(\r\n        address target,\r\n        bytes memory data,\r\n        uint256 weiValue,\r\n        string memory errorMessage\r\n    ) private returns (bytes memory) {\r\n        require(isContract(target), \"Address: call to non-contract\");\r\n\r\n        // solhint-disable-next-line avoid-low-level-calls\r\n        (bool success, bytes memory returndata) = target.call{value: weiValue}(\r\n            data\r\n        );\r\n        if (success) {\r\n            return returndata;\r\n        } else {\r\n            // Look for revert reason and bubble it up if present\r\n            if (returndata.length > 0) {\r\n                // The easiest way to bubble the revert reason is using memory via assembly\r\n\r\n                // solhint-disable-next-line no-inline-assembly\r\n                assembly {\r\n                    let returndata_size := mload(returndata)\r\n                    revert(add(32, returndata), returndata_size)\r\n                }\r\n            } else {\r\n                revert(errorMessage);\r\n            }\r\n        }\r\n    }\r\n}\r\n\r\n/**\r\n * @dev Contract module which provides a basic access control mechanism, where\r\n * there is an account (an owner) that can be granted exclusive access to\r\n * specific functions.\r\n *\r\n * By default, the owner account will be the one that deploys the contract. This\r\n * can later be changed with {transferOwnership}.\r\n *\r\n * This module is used through inheritance. It will make available the modifier\r\n * `onlyOwner`, which can be applied to your functions to restrict their use to\r\n * the owner.\r\n */\r\ncontract Ownable is Context {\r\n    address private _owner;\r\n\r\n    event OwnershipTransferred(\r\n        address indexed previousOwner,\r\n        address indexed newOwner\r\n    );\r\n\r\n    /**\r\n     * @dev Initializes the contract setting the deployer as the initial owner.\r\n     */\r\n    constructor() {\r\n        address msgSender = _msgSender();\r\n        _owner = msgSender;\r\n        emit OwnershipTransferred(address(0), msgSender);\r\n    }\r\n\r\n    /**\r\n     * @dev Returns the address of the current owner.\r\n     */\r\n    function owner() public view returns (address) {\r\n        return _owner;\r\n    }\r\n\r\n    /**\r\n     * @dev Throws if called by any account other than the owner.\r\n     */\r\n    modifier onlyOwner() {\r\n        require(_owner == _msgSender(), \"Ownable: caller is not the owner\");\r\n        _;\r\n    }\r\n\r\n    /**\r\n     * @dev Leaves the contract without owner. It will not be possible to call\r\n     * `onlyOwner` functions anymore. Can only be called by the current owner.\r\n     *\r\n     * NOTE: Renouncing ownership will leave the contract without an owner,\r\n     * thereby removing any functionality that is only available to the owner.\r\n     */\r\n    function renounceOwnership() public virtual onlyOwner {\r\n        emit OwnershipTransferred(_owner, address(0));\r\n        _owner = address(0);\r\n    }\r\n\r\n    /**\r\n     * @dev Transfers ownership of the contract to a new account (`newOwner`).\r\n     * Can only be called by the current owner.\r\n     */\r\n    function transferOwnership(address newOwner) public virtual onlyOwner {\r\n        require(\r\n            newOwner != address(0),\r\n            \"Ownable: new owner is the zero address\"\r\n        );\r\n        emit OwnershipTransferred(_owner, newOwner);\r\n        _owner = newOwner;\r\n    }\r\n}\r\n\r\ncontract DMS is Context, IERC20, Ownable {\r\n    using SafeMath for uint256;\r\n    using Address for address;\r\n\r\n    mapping(address => uint256) private _rOwned;\r\n    mapping(address => uint256) private _tOwned;\r\n    mapping(address => mapping(address => uint256)) private _allowances;\r\n\r\n    mapping(address => bool) private _isExcluded;\r\n    address[] private _excluded;\r\n    address public devWallet = 0x24425b334Dcdb9E9E4E81364CC4414527d7Fe460; // should be updated\r\n    address public rewardWallet = 0x643974E5d886A57eC6f1Bd26986B8cdacB7c5c3E; // should be updated\r\n\r\n    uint256 private constant MAX = ~uint256(0);\r\n    uint256 private _tTotal = 1 * 10**9 * 10**18;\r\n    uint256 private _rTotal = (MAX - (MAX % _tTotal));\r\n    uint256 private _tFeeTotal;\r\n    uint256 private _tBurnTotal;\r\n\r\n    string private _name = \"DearMonsters\";\r\n    string private _symbol = \"DMS\";\r\n    uint8 private _decimals = 18;\r\n\r\n    uint256 public _taxFee = 15;\r\n    uint256 public _burnFee = 10;\r\n    uint256 public _devFee = 5;\r\n    uint256 public _rewardFee = 0;\r\n\r\n    uint256 public _maxTransferRate = 5; // over 1e4 max transfer amount is 0.5% of total amount\r\n\r\n    constructor() public {\r\n        _rOwned[_msgSender()] = _rTotal;\r\n        emit Transfer(address(0), _msgSender(), _tTotal);\r\n    }\r\n\r\n    function name() public view returns (string memory) {\r\n        return _name;\r\n    }\r\n\r\n    function symbol() public view returns (string memory) {\r\n        return _symbol;\r\n    }\r\n\r\n    function decimals() public view returns (uint8) {\r\n        return _decimals;\r\n    }\r\n\r\n    function totalSupply() public view override returns (uint256) {\r\n        return _tTotal;\r\n    }\r\n\r\n    function balanceOf(address account) public view override returns (uint256) {\r\n        if (_isExcluded[account]) return _tOwned[account];\r\n        return tokenFromReflection(_rOwned[account]);\r\n    }\r\n\r\n    function transfer(address recipient, uint256 amount)\r\n        public\r\n        override\r\n        returns (bool)\r\n    {\r\n        _transfer(_msgSender(), recipient, amount);\r\n        return true;\r\n    }\r\n\r\n    function allowance(address owner, address spender)\r\n        public\r\n        view\r\n        override\r\n        returns (uint256)\r\n    {\r\n        return _allowances[owner][spender];\r\n    }\r\n\r\n    function approve(address spender, uint256 amount)\r\n        public\r\n        override\r\n        returns (bool)\r\n    {\r\n        _approve(_msgSender(), spender, amount);\r\n        return true;\r\n    }\r\n\r\n    function transferFrom(\r\n        address sender,\r\n        address recipient,\r\n        uint256 amount\r\n    ) public override returns (bool) {\r\n        _transfer(sender, recipient, amount);\r\n        _approve(\r\n            sender,\r\n            _msgSender(),\r\n            _allowances[sender][_msgSender()].sub(\r\n                amount,\r\n                \"ERC20: transfer amount exceeds allowance\"\r\n            )\r\n        );\r\n        return true;\r\n    }\r\n\r\n    function increaseAllowance(address spender, uint256 addedValue)\r\n        public\r\n        virtual\r\n        returns (bool)\r\n    {\r\n        _approve(\r\n            _msgSender(),\r\n            spender,\r\n            _allowances[_msgSender()][spender].add(addedValue)\r\n        );\r\n        return true;\r\n    }\r\n\r\n    function decreaseAllowance(address spender, uint256 subtractedValue)\r\n        public\r\n        virtual\r\n        returns (bool)\r\n    {\r\n        _approve(\r\n            _msgSender(),\r\n            spender,\r\n            _allowances[_msgSender()][spender].sub(\r\n                subtractedValue,\r\n                \"ERC20: decreased allowance below zero\"\r\n            )\r\n        );\r\n        return true;\r\n    }\r\n\r\n    function isExcluded(address account) public view returns (bool) {\r\n        return _isExcluded[account];\r\n    }\r\n\r\n    function totalFees() public view returns (uint256) {\r\n        return _tFeeTotal;\r\n    }\r\n\r\n    function totalBurn() public view returns (uint256) {\r\n        return _tBurnTotal;\r\n    }\r\n\r\n    function deliver(uint256 tAmount) public {\r\n        address sender = _msgSender();\r\n        require(\r\n            !_isExcluded[sender],\r\n            \"Excluded addresses cannot call this function\"\r\n        );\r\n        (uint256 rAmount, , , , ) = _getValues(tAmount);\r\n        _rOwned[sender] = _rOwned[sender].sub(rAmount);\r\n        _rTotal = _rTotal.sub(rAmount);\r\n        _tFeeTotal = _tFeeTotal.add(tAmount);\r\n    }\r\n\r\n    function reflectionFromToken(uint256 tAmount, bool deductTransferFee)\r\n        public\r\n        view\r\n        returns (uint256)\r\n    {\r\n        require(tAmount <= _tTotal, \"Amount must be less than supply\");\r\n        if (!deductTransferFee) {\r\n            (uint256 rAmount, , , , ) = _getValues(tAmount);\r\n            return rAmount;\r\n        } else {\r\n            (, uint256 rTransferAmount, , , ) = _getValues(tAmount);\r\n            return rTransferAmount;\r\n        }\r\n    }\r\n\r\n    function tokenFromReflection(uint256 rAmount)\r\n        public\r\n        view\r\n        returns (uint256)\r\n    {\r\n        require(\r\n            rAmount <= _rTotal,\r\n            \"Amount must be less than total reflections\"\r\n        );\r\n        uint256 currentRate = _getRate();\r\n        return rAmount.div(currentRate);\r\n    }\r\n\r\n    function excludeAccount(address account) external onlyOwner {\r\n        require(\r\n            account != 0x7a250d5630B4cF539739dF2C5dAcb4c659F2488D,\r\n            \"We can not exclude Uniswap router.\"\r\n        );\r\n        require(!_isExcluded[account], \"Account is already excluded\");\r\n        if (_rOwned[account] > 0) {\r\n            _tOwned[account] = tokenFromReflection(_rOwned[account]);\r\n        }\r\n        _isExcluded[account] = true;\r\n        _excluded.push(account);\r\n    }\r\n\r\n    function includeAccount(address account) external onlyOwner {\r\n        require(_isExcluded[account], \"Account is already excluded\");\r\n        for (uint256 i = 0; i < _excluded.length; i++) {\r\n            if (_excluded[i] == account) {\r\n                _excluded[i] = _excluded[_excluded.length - 1];\r\n                _tOwned[account] = 0;\r\n                _isExcluded[account] = false;\r\n                _excluded.pop();\r\n                break;\r\n            }\r\n        }\r\n    }\r\n\r\n    function _approve(\r\n        address owner,\r\n        address spender,\r\n        uint256 amount\r\n    ) private {\r\n        require(owner != address(0), \"ERC20: approve from the zero address\");\r\n        require(spender != address(0), \"ERC20: approve to the zero address\");\r\n\r\n        _allowances[owner][spender] = amount;\r\n        emit Approval(owner, spender, amount);\r\n    }\r\n\r\n    function _transfer(\r\n        address sender,\r\n        address recipient,\r\n        uint256 amount\r\n    ) private {\r\n        require(sender != address(0), \"ERC20: transfer from the zero address\");\r\n        require(recipient != address(0), \"ERC20: transfer to the zero address\");\r\n        require(amount > 0, \"Transfer amount must be greater than zero\");\r\n\r\n        if (sender != owner() && recipient != owner())\r\n            require(\r\n                amount <= _maxTransferRate.mul(_tTotal).div(1000),\r\n                \"Transfer amount exceeds the maxTxAmount.\"\r\n            );\r\n\r\n        if (_isExcluded[sender] && !_isExcluded[recipient]) {\r\n            _transferFromExcluded(sender, recipient, amount);\r\n        } else if (!_isExcluded[sender] && _isExcluded[recipient]) {\r\n            _transferToExcluded(sender, recipient, amount);\r\n        } else if (!_isExcluded[sender] && !_isExcluded[recipient]) {\r\n            _transferStandard(sender, recipient, amount);\r\n        } else if (_isExcluded[sender] && _isExcluded[recipient]) {\r\n            _transferBothExcluded(sender, recipient, amount);\r\n        } else {\r\n            _transferStandard(sender, recipient, amount);\r\n        }\r\n    }\r\n\r\n    function _transferStandard(\r\n        address sender,\r\n        address recipient,\r\n        uint256 tAmount\r\n    ) private {\r\n        (\r\n            uint256 rAmount,\r\n            uint256 rTransferAmount,\r\n            uint256 rFee,\r\n            uint256 tTransferAmount,\r\n            uint256 tFee\r\n        ) = _getValues(tAmount);\r\n        _rOwned[sender] = _rOwned[sender].sub(rAmount);\r\n        _rOwned[recipient] = _rOwned[recipient].add(rTransferAmount);\r\n        //_takeExtraFee(tAmount);\r\n        //_reflectFee(rFee, tFee);\r\n        emit Transfer(sender, recipient, tTransferAmount);\r\n    }\r\n\r\n    function _transferToExcluded(\r\n        address sender,\r\n        address recipient,\r\n        uint256 tAmount\r\n    ) private {\r\n        (\r\n            uint256 rAmount,\r\n            uint256 rTransferAmount,\r\n            uint256 rFee,\r\n            uint256 tTransferAmount,\r\n            uint256 tFee\r\n        ) = _getValues(tAmount);\r\n        _rOwned[sender] = _rOwned[sender].sub(rAmount);\r\n        _tOwned[recipient] = _tOwned[recipient].add(tTransferAmount);\r\n        _rOwned[recipient] = _rOwned[recipient].add(rTransferAmount);\r\n        //_takeExtraFee(tAmount);\r\n        //_reflectFee(rFee, tFee);\r\n        emit Transfer(sender, recipient, tTransferAmount);\r\n    }\r\n\r\n    function _transferFromExcluded(\r\n        address sender,\r\n        address recipient,\r\n        uint256 tAmount\r\n    ) private {\r\n        (\r\n            uint256 rAmount,\r\n            uint256 rTransferAmount,\r\n            uint256 rFee,\r\n            uint256 tTransferAmount,\r\n            uint256 tFee\r\n        ) = _getValues(tAmount);\r\n        _tOwned[sender] = _tOwned[sender].sub(tAmount);\r\n        _rOwned[sender] = _rOwned[sender].sub(rAmount);\r\n        _rOwned[recipient] = _rOwned[recipient].add(rTransferAmount);\r\n        //_takeExtraFee(tAmount);\r\n        //_reflectFee(rFee, tFee);\r\n        emit Transfer(sender, recipient, tTransferAmount);\r\n    }\r\n\r\n    function _transferBothExcluded(\r\n        address sender,\r\n        address recipient,\r\n        uint256 tAmount\r\n    ) private {\r\n        (\r\n            uint256 rAmount,\r\n            uint256 rTransferAmount,\r\n            uint256 rFee,\r\n            uint256 tTransferAmount,\r\n            uint256 tFee\r\n        ) = _getValues(tAmount);\r\n        _tOwned[sender] = _tOwned[sender].sub(tAmount);\r\n        _rOwned[sender] = _rOwned[sender].sub(rAmount);\r\n        _tOwned[recipient] = _tOwned[recipient].add(tTransferAmount);\r\n        _rOwned[recipient] = _rOwned[recipient].add(rTransferAmount);\r\n        //_takeExtraFee(tAmount);\r\n        //_reflectFee(rFee, tFee);\r\n        emit Transfer(sender, recipient, tTransferAmount);\r\n    }\r\n\r\n    function _reflectFee(uint256 rFee, uint256 tFee) private {\r\n        _rTotal = _rTotal.sub(rFee);\r\n        _tFeeTotal = _tFeeTotal.add(tFee);\r\n    }\r\n\r\n    function _getValues(uint256 tAmount)\r\n        private\r\n        view\r\n        returns (\r\n            uint256,\r\n            uint256,\r\n            uint256,\r\n            uint256,\r\n            uint256\r\n        )\r\n    {\r\n        (uint256 tTransferAmount, uint256 tFee, uint256 tExtra) = _getTValues(\r\n            tAmount,\r\n            _taxFee\r\n        );\r\n        uint256 currentRate = _getRate();\r\n        (uint256 rAmount, uint256 rTransferAmount, uint256 rFee) = _getRValues(\r\n            tAmount,\r\n            tFee,\r\n            tExtra,\r\n            currentRate\r\n        );\r\n        return (rAmount, rTransferAmount, rFee, tTransferAmount, tFee);\r\n    }\r\n\r\n    function _getTValues(uint256 tAmount, uint256 taxFee)\r\n        private\r\n        view\r\n        returns (\r\n            uint256,\r\n            uint256,\r\n            uint256\r\n        )\r\n    {\r\n        uint256 tFee = tAmount.mul(taxFee).div(1000);\r\n        uint256 tExtra = tAmount.mul(_burnFee.add(_devFee).add(_rewardFee)).div(\r\n            1000\r\n        );\r\n        uint256 tTransferAmount = tAmount.sub(tFee).sub(tExtra);\r\n        return (tTransferAmount, tFee, tExtra);\r\n    }\r\n\r\n    function _getRValues(\r\n        uint256 tAmount,\r\n        uint256 tFee,\r\n        uint256 tExtra,\r\n        uint256 currentRate\r\n    )\r\n        private\r\n        pure\r\n        returns (\r\n            uint256,\r\n            uint256,\r\n            uint256\r\n        )\r\n    {\r\n        uint256 rAmount = tAmount.mul(currentRate);\r\n        uint256 rFee = tFee.mul(currentRate);\r\n        uint256 rExtra = tExtra.mul(currentRate);\r\n        uint256 rTransferAmount = rAmount.sub(rFee).sub(rExtra);\r\n        return (rAmount, rTransferAmount, rFee);\r\n    }\r\n\r\n    function _getRate() private view returns (uint256) {\r\n        (uint256 rSupply, uint256 tSupply) = _getCurrentSupply();\r\n        return rSupply.div(tSupply);\r\n    }\r\n\r\n    function _getCurrentSupply() private view returns (uint256, uint256) {\r\n        uint256 rSupply = _rTotal;\r\n        uint256 tSupply = _tTotal;\r\n        for (uint256 i = 0; i < _excluded.length; i++) {\r\n            if (\r\n                _rOwned[_excluded[i]] > rSupply ||\r\n                _tOwned[_excluded[i]] > tSupply\r\n            ) return (_rTotal, _tTotal);\r\n            rSupply = rSupply.sub(_rOwned[_excluded[i]]);\r\n            tSupply = tSupply.sub(_tOwned[_excluded[i]]);\r\n        }\r\n        if (rSupply < _rTotal.div(_tTotal)) return (_rTotal, _tTotal);\r\n        return (rSupply, tSupply);\r\n    }\r\n\r\n    function _takeExtraFee(uint256 tAmount) private {\r\n        uint256 currentRate = _getRate();\r\n        uint256 tDev = tAmount.mul(_devFee).div(1000);\r\n        uint256 tReward = tAmount.mul(_rewardFee).div(1000);\r\n        uint256 rDev = tDev.mul(currentRate);\r\n        uint256 rReward = tReward.mul(currentRate);\r\n        _rOwned[devWallet] = _rOwned[devWallet].add(rDev);\r\n        if (_isExcluded[devWallet])\r\n            _tOwned[devWallet] = _tOwned[devWallet].add(tDev);\r\n        _rOwned[rewardWallet] = _rOwned[rewardWallet].add(rReward);\r\n        if (_isExcluded[rewardWallet])\r\n            _tOwned[rewardWallet] = _tOwned[rewardWallet].add(tReward);\r\n    }\r\n\r\n    function _setTaxFee(uint256 taxFee) external onlyOwner {\r\n        _taxFee = taxFee;\r\n    }\r\n\r\n    function _setBurnFee(uint256 burnFee) external onlyOwner {\r\n        _burnFee = burnFee;\r\n    }\r\n\r\n    function _setDevFee(uint256 devFee) external onlyOwner {\r\n        _devFee = devFee;\r\n    }\r\n\r\n    function _setRewardFee(uint256 rewardFee) external onlyOwner {\r\n        _rewardFee = rewardFee;\r\n    }\r\n\r\n    function _setMaxTransferRate(uint256 maxTransferRate) external onlyOwner {\r\n        _maxTransferRate = maxTransferRate;\r\n    }\r\n}",
  "sourcePath": "D:\\Work\\Work_2021\\2021_12\\Hunter_blockchain\\DearMonster\\contracts\\DMS.sol",
  "compiler": {
    "name": "solc",
    "version": "0.8.4+commit.c7e474f2.Emscripten.clang"
  },
  "schemaVersion": "3.4.4",
  "updatedAt": "2022-01-05T03:55:36.545Z",
  "devdoc": {
    "kind": "dev",
    "methods": {
      "allowance(address,address)": {
        "details": "Returns the remaining number of tokens that `spender` will be allowed to spend on behalf of `owner` through {transferFrom}. This is zero by default. This value changes when {approve} or {transferFrom} are called."
      },
      "approve(address,uint256)": {
        "details": "Sets `amount` as the allowance of `spender` over the caller's tokens. Returns a boolean value indicating whether the operation succeeded. IMPORTANT: Beware that changing an allowance with this method brings the risk that someone may use both the old and the new allowance by unfortunate transaction ordering. One possible solution to mitigate this race condition is to first reduce the spender's allowance to 0 and set the desired value afterwards: https://github.com/ethereum/EIPs/issues/20#issuecomment-263524729 Emits an {Approval} event."
      },
      "balanceOf(address)": {
        "details": "Returns the amount of tokens owned by `account`."
      },
      "owner()": {
        "details": "Returns the address of the current owner."
      },
      "renounceOwnership()": {
        "details": "Leaves the contract without owner. It will not be possible to call `onlyOwner` functions anymore. Can only be called by the current owner. NOTE: Renouncing ownership will leave the contract without an owner, thereby removing any functionality that is only available to the owner."
      },
      "totalSupply()": {
        "details": "Returns the amount of tokens in existence."
      },
      "transfer(address,uint256)": {
        "details": "Moves `amount` tokens from the caller's account to `recipient`. Returns a boolean value indicating whether the operation succeeded. Emits a {Transfer} event."
      },
      "transferFrom(address,address,uint256)": {
        "details": "Moves `amount` tokens from `sender` to `recipient` using the allowance mechanism. `amount` is then deducted from the caller's allowance. Returns a boolean value indicating whether the operation succeeded. Emits a {Transfer} event."
      },
      "transferOwnership(address)": {
        "details": "Transfers ownership of the contract to a new account (`newOwner`). Can only be called by the current owner."
      }
    },
    "version": 1
  },
  "userdoc": {
    "kind": "user",
    "methods": {},
    "version": 1
  }
}