{
  "contractName": "DMSToken",
  "abi": [
    {
      "inputs": [],
      "stateMutability": "nonpayable",
      "type": "constructor"
    },
    {
      "anonymous": false,
      "inputs": [
        {
          "indexed": true,
          "internalType": "address",
          "name": "owner",
          "type": "address"
        },
        {
          "indexed": true,
          "internalType": "address",
          "name": "spender",
          "type": "address"
        },
        {
          "indexed": false,
          "internalType": "uint256",
          "name": "value",
          "type": "uint256"
        }
      ],
      "name": "Approval",
      "type": "event"
    },
    {
      "anonymous": false,
      "inputs": [
        {
          "indexed": true,
          "internalType": "address",
          "name": "from",
          "type": "address"
        },
        {
          "indexed": true,
          "internalType": "address",
          "name": "to",
          "type": "address"
        },
        {
          "indexed": false,
          "internalType": "uint256",
          "name": "value",
          "type": "uint256"
        }
      ],
      "name": "Transfer",
      "type": "event"
    },
    {
      "inputs": [],
      "name": "_decimals",
      "outputs": [
        {
          "internalType": "uint8",
          "name": "",
          "type": "uint8"
        }
      ],
      "stateMutability": "view",
      "type": "function",
      "constant": true
    },
    {
      "inputs": [],
      "name": "_name",
      "outputs": [
        {
          "internalType": "string",
          "name": "",
          "type": "string"
        }
      ],
      "stateMutability": "view",
      "type": "function",
      "constant": true
    },
    {
      "inputs": [],
      "name": "_symbol",
      "outputs": [
        {
          "internalType": "string",
          "name": "",
          "type": "string"
        }
      ],
      "stateMutability": "view",
      "type": "function",
      "constant": true
    },
    {
      "inputs": [],
      "name": "decimals",
      "outputs": [
        {
          "internalType": "uint8",
          "name": "",
          "type": "uint8"
        }
      ],
      "stateMutability": "view",
      "type": "function",
      "constant": true
    },
    {
      "inputs": [],
      "name": "symbol",
      "outputs": [
        {
          "internalType": "string",
          "name": "",
          "type": "string"
        }
      ],
      "stateMutability": "view",
      "type": "function",
      "constant": true
    },
    {
      "inputs": [],
      "name": "name",
      "outputs": [
        {
          "internalType": "string",
          "name": "",
          "type": "string"
        }
      ],
      "stateMutability": "view",
      "type": "function",
      "constant": true
    },
    {
      "inputs": [],
      "name": "totalSupply",
      "outputs": [
        {
          "internalType": "uint256",
          "name": "",
          "type": "uint256"
        }
      ],
      "stateMutability": "view",
      "type": "function",
      "constant": true
    },
    {
      "inputs": [
        {
          "internalType": "address",
          "name": "account",
          "type": "address"
        }
      ],
      "name": "balanceOf",
      "outputs": [
        {
          "internalType": "uint256",
          "name": "",
          "type": "uint256"
        }
      ],
      "stateMutability": "view",
      "type": "function",
      "constant": true
    },
    {
      "inputs": [
        {
          "internalType": "address",
          "name": "_recipient",
          "type": "address"
        },
        {
          "internalType": "uint256",
          "name": "_amount",
          "type": "uint256"
        }
      ],
      "name": "transfer",
      "outputs": [
        {
          "internalType": "bool",
          "name": "",
          "type": "bool"
        }
      ],
      "stateMutability": "nonpayable",
      "type": "function"
    },
    {
      "inputs": [
        {
          "internalType": "address",
          "name": "_owner",
          "type": "address"
        },
        {
          "internalType": "address",
          "name": "_spender",
          "type": "address"
        }
      ],
      "name": "allowance",
      "outputs": [
        {
          "internalType": "uint256",
          "name": "",
          "type": "uint256"
        }
      ],
      "stateMutability": "view",
      "type": "function",
      "constant": true
    },
    {
      "inputs": [
        {
          "internalType": "address",
          "name": "_spender",
          "type": "address"
        },
        {
          "internalType": "uint256",
          "name": "_amount",
          "type": "uint256"
        }
      ],
      "name": "approve",
      "outputs": [
        {
          "internalType": "bool",
          "name": "",
          "type": "bool"
        }
      ],
      "stateMutability": "nonpayable",
      "type": "function"
    },
    {
      "inputs": [
        {
          "internalType": "address",
          "name": "_sender",
          "type": "address"
        },
        {
          "internalType": "address",
          "name": "_recipient",
          "type": "address"
        },
        {
          "internalType": "uint256",
          "name": "_amount",
          "type": "uint256"
        }
      ],
      "name": "transferFrom",
      "outputs": [
        {
          "internalType": "bool",
          "name": "",
          "type": "bool"
        }
      ],
      "stateMutability": "nonpayable",
      "type": "function"
    },
    {
      "inputs": [
        {
          "internalType": "address",
          "name": "_spender",
          "type": "address"
        },
        {
          "internalType": "uint256",
          "name": "_addedValue",
          "type": "uint256"
        }
      ],
      "name": "increaseAllowance",
      "outputs": [
        {
          "internalType": "bool",
          "name": "",
          "type": "bool"
        }
      ],
      "stateMutability": "nonpayable",
      "type": "function"
    },
    {
      "inputs": [
        {
          "internalType": "address",
          "name": "_spender",
          "type": "address"
        },
        {
          "internalType": "uint256",
          "name": "_subtractedValue",
          "type": "uint256"
        }
      ],
      "name": "decreaseAllowance",
      "outputs": [
        {
          "internalType": "bool",
          "name": "",
          "type": "bool"
        }
      ],
      "stateMutability": "nonpayable",
      "type": "function"
    },
    {
      "inputs": [
        {
          "internalType": "uint256",
          "name": "_amount",
          "type": "uint256"
        }
      ],
      "name": "burn",
      "outputs": [],
      "stateMutability": "nonpayable",
      "type": "function"
    }
  ],
  "bytecode": "0x60806040523480156200001157600080fd5b5060408051808201909152600380825262444d5360e81b60209092019182526200003c91816200009f565b5060408051808201909152600380825262444d5360e81b602090920191825262000069916004916200009f565b506005805460ff191660121790556b033b2e3c9fd0803ce80000006002819055336000908152602081905260409020556200018c565b828054620000ad9062000145565b90600052602060002090601f016020900481019282620000d157600085556200011c565b82601f10620000ec57805160ff19168380011785556200011c565b828001600101855582156200011c579182015b828111156200011c578251825591602001919060010190620000ff565b506200012a9291506200012e565b5090565b5b808211156200012a57600081556001016200012f565b6002810460018216806200015a57607f821691505b6020821081141562000170576200017062000176565b50919050565b634e487b7160e01b600052602260045260246000fd5b610c44806200019c6000396000f3fe608060405234801561001057600080fd5b50600436106100f55760003560e01c806342966c6811610097578063a9059cbb11610066578063a9059cbb146101e9578063b09f1266146101fc578063d28d885214610204578063dd62ed3e1461020c57600080fd5b806342966c681461019057806370a08231146101a557806395d89b41146101ce578063a457c2d7146101d657600080fd5b806323b872dd116100d357806323b872dd14610149578063313ce5671461015c57806332424aa314610170578063395093511461017d57600080fd5b806306fdde03146100fa578063095ea7b31461011857806318160ddd14610138575b600080fd5b610102610245565b60405161010f91906109f3565b60405180910390f35b61012b61012636600461084b565b6102d7565b60405161010f91906109e5565b6002545b60405161010f9190610a7e565b61012b6101573660046107fe565b6102ee565b60055460ff165b60405161010f9190610a8c565b6005546101639060ff1681565b61012b61018b36600461084b565b610357565b6101a361019e36600461087b565b61038d565b005b61013c6101b336600461079e565b6001600160a01b031660009081526020819052604090205490565b61010261039a565b61012b6101e436600461084b565b6103a9565b61012b6101f736600461084b565b6103f8565b610102610405565b610102610493565b61013c61021a3660046107c4565b6001600160a01b03918216600090815260016020908152604080832093909416825291909152205490565b60606003805461025490610b0a565b80601f016020809104026020016040519081016040528092919081815260200182805461028090610b0a565b80156102cd5780601f106102a2576101008083540402835291602001916102cd565b820191906000526020600020905b8154815290600101906020018083116102b057829003601f168201915b5050505050905090565b60006102e43384846104a0565b5060015b92915050565b60006102fb84848461055d565b61034d843361034885604051806060016040528060278152602001610b7e602791396001600160a01b038a1660009081526001602090815260408083203384529091529020549190610667565b6104a0565b5060019392505050565b3360008181526001602090815260408083206001600160a01b038716845290915281205490916102e49185906103489086610693565b61039733826106a6565b50565b60606004805461025490610b0a565b60006102e4338461034885604051806060016040528060238152602001610bec602391393360009081526001602090815260408083206001600160a01b038d1684529091529020549190610667565b60006102e433848461055d565b6004805461041290610b0a565b80601f016020809104026020016040519081016040528092919081815260200182805461043e90610b0a565b801561048b5780601f106104605761010080835404028352916020019161048b565b820191906000526020600020905b81548152906001019060200180831161046e57829003601f168201915b505050505081565b6003805461041290610b0a565b6001600160a01b0383166104cf5760405162461bcd60e51b81526004016104c690610a6e565b60405180910390fd5b6001600160a01b0382166104f55760405162461bcd60e51b81526004016104c690610a4e565b6001600160a01b0380841660008181526001602090815260408083209487168084529490915290819020849055517f8c5be1e5ebec7d5bd14f71427d1e84f3dd0314c0f7b2291e5b200ac8c7c3b92590610550908590610a7e565b60405180910390a3505050565b6001600160a01b0383166105835760405162461bcd60e51b81526004016104c690610a04565b6001600160a01b0382166105a95760405162461bcd60e51b81526004016104c690610a5e565b6105e681604051806060016040528060268152602001610bc6602691396001600160a01b0386166000908152602081905260409020549190610667565b6001600160a01b0380851660009081526020819052604080822093909355908416815220546106159082610693565b6001600160a01b0380841660008181526020819052604090819020939093559151908516907fddf252ad1be2c89b69c2b068fc378daa952ba7f163c4a11628f55a4df523b3ef90610550908590610a7e565b6000818484111561068b5760405162461bcd60e51b81526004016104c691906109f3565b505050900390565b600061069f8284610a9a565b9392505050565b6001600160a01b0382166106cc5760405162461bcd60e51b81526004016104c690610a14565b61070981604051806060016040528060218152602001610ba5602191396001600160a01b0385166000908152602081905260409020549190610667565b6001600160a01b03831660009081526020819052604090205560025461072f908261077c565b6002556040516000906001600160a01b038416907fddf252ad1be2c89b69c2b068fc378daa952ba7f163c4a11628f55a4df523b3ef90610770908590610a7e565b60405180910390a35050565b600061069f8284610ab2565b80356102e881610b63565b80356102e881610b77565b6000602082840312156107b057600080fd5b60006107bc8484610788565b949350505050565b600080604083850312156107d757600080fd5b60006107e38585610788565b92505060206107f485828601610788565b9150509250929050565b60008060006060848603121561081357600080fd5b600061081f8686610788565b935050602061083086828701610788565b925050604061084186828701610793565b9150509250925092565b6000806040838503121561085e57600080fd5b600061086a8585610788565b92505060206107f485828601610793565b60006020828403121561088d57600080fd5b60006107bc8484610793565b8015155b82525050565b60006108ad825190565b8084526020840193506108c4818560208601610ada565b601f01601f19169290920192915050565b602481526000602082017f444d53543a207472616e736665722066726f6d20746865207a65726f206164648152637265737360e01b602082015291505b5060400190565b602181526000602082017f444d53543a20617070726f766520746f20746865207a65726f206164647265738152607360f81b60208201529150610912565b602281526000602082017f444d53543a207472616e7366657220746f20746865207a65726f206164647265815261737360f01b60208201529150610912565b602381526000602082017f444d53543a20617070726f76652066726f6d20746865207a65726f206164647281526265737360e81b60208201529150610912565b8061089d565b60ff811661089d565b602081016102e88284610899565b6020808252810161069f81846108a3565b602080825281016102e8816108d5565b60208082528181019081527f444d53543a206275726e2066726f6d20746865207a65726f20616464726573736040830152606082016102e8565b602080825281016102e881610919565b602080825281016102e881610957565b602080825281016102e881610996565b602081016102e882846109d6565b602081016102e882846109dc565b60008219821115610aad57610aad610b37565b500190565b600082821015610ac457610ac4610b37565b500390565b60006001600160a01b0382166102e8565b60005b83811015610af5578181015183820152602001610add565b83811115610b04576000848401525b50505050565b600281046001821680610b1e57607f821691505b60208210811415610b3157610b31610b4d565b50919050565b634e487b7160e01b600052601160045260246000fd5b634e487b7160e01b600052602260045260246000fd5b610b6c81610ac9565b811461039757600080fd5b80610b6c56fe444d53543a207472616e7366657220616d6f756e74206578636565647320616c6c6f77616e6365444d53543a206275726e20616d6f756e7420657863656564732062616c616e6365444d53543a207472616e73666572205f616d6f756e7420657863656564732062616c616e63654859543a2064656372656173656420616c6c6f77616e63652062656c6f77207a65726fa264697066735822122065485293f15252979c769106e902dff6398b0fef7aa16b36b0af134cc6774a1164736f6c63430008040033",
  "immutableReferences": {},
  "source": "// SPDX-License-Identifier: MIT\r\npragma solidity ^0.8.4;\r\n\r\nimport \"@openzeppelin/contracts/utils/math/SafeMath.sol\";\r\nimport \"@openzeppelin/contracts/utils/Context.sol\";\r\nimport \"./interfaces/IDMSToken.sol\";\r\n\r\ncontract DMSToken is Context, IDMSToken {\r\n    using SafeMath for uint256;\r\n\r\n    mapping(address => uint256) private _balances;\r\n    mapping(address => mapping(address => uint256)) private _allowances;\r\n\r\n    uint256 private _totalSupply;\r\n    string public _name;\r\n    string public _symbol;\r\n    uint8 public _decimals;\r\n\r\n    constructor() {\r\n        _name = \"DMS\";\r\n        _symbol = \"DMS\";\r\n        _decimals = 18;\r\n        _totalSupply = 1 * 10**9 * 10**18; // 500m\r\n        _balances[msg.sender] = _totalSupply;\r\n    }\r\n\r\n    /**\r\n     * @dev Returns the token decimals.\r\n     */\r\n    function decimals() external view virtual override returns (uint8) {\r\n        return _decimals;\r\n    }\r\n\r\n    /**\r\n     * @dev Returns the token symbol.\r\n     */\r\n    function symbol() external view virtual override returns (string memory) {\r\n        return _symbol;\r\n    }\r\n\r\n    /**\r\n     * @dev Returns the token name.\r\n     */\r\n    function name() external view virtual override returns (string memory) {\r\n        return _name;\r\n    }\r\n\r\n    /**\r\n     * @dev See total supply of token.\r\n     */\r\n    function totalSupply() external view virtual override returns (uint256) {\r\n        return _totalSupply;\r\n    }\r\n\r\n    /**\r\n     * @dev See balance of account.\r\n     */\r\n    function balanceOf(address account)\r\n        external\r\n        view\r\n        virtual\r\n        override\r\n        returns (uint256)\r\n    {\r\n        return _balances[account];\r\n    }\r\n\r\n    /**\r\n     * @dev transfer token from msg.sender to recipient\r\n     * @param _recipient address of account to receive token,\r\n     *                   where it cannot be zero\r\n     * @param _amount amount of token to transfer\r\n     */\r\n    function transfer(address _recipient, uint256 _amount)\r\n        external\r\n        override\r\n        returns (bool)\r\n    {\r\n        _transfer(_msgSender(), _recipient, _amount);\r\n        return true;\r\n    }\r\n\r\n    /**\r\n     * @dev get allowance spender by owner\r\n     * @param _owner owner of token\r\n     * @param _spender account to be approved.\r\n     */\r\n    function allowance(address _owner, address _spender)\r\n        external\r\n        view\r\n        override\r\n        returns (uint256)\r\n    {\r\n        return _allowances[_owner][_spender];\r\n    }\r\n\r\n    /**\r\n     * @dev approve spender by owner\r\n     * @param _spender account to be approved\r\n     * @param _amount amount to transfer\r\n     */\r\n    function approve(address _spender, uint256 _amount)\r\n        external\r\n        override\r\n        returns (bool)\r\n    {\r\n        _approve(_msgSender(), _spender, _amount);\r\n        return true;\r\n    }\r\n\r\n    /**\r\n     * @dev transfer token from _sender to _recipient and update allowance\r\n     */\r\n    function transferFrom(\r\n        address _sender,\r\n        address _recipient,\r\n        uint256 _amount\r\n    ) external override returns (bool) {\r\n        _transfer(_sender, _recipient, _amount);\r\n        _approve(\r\n            _sender,\r\n            _msgSender(),\r\n            _allowances[_sender][_msgSender()].sub(\r\n                _amount,\r\n                \"DMST: transfer amount exceeds allowance\"\r\n            )\r\n        );\r\n        return true;\r\n    }\r\n\r\n    /**\r\n     * @dev Atomically increases the allowance granted to `spender` by the caller.\r\n     *\r\n     * This is an alternative to {approve} that can be used as a mitigation for\r\n     * problems described in {BEP20-approve}.\r\n     *\r\n     * Emits an {Approval} event indicating the updated allowance.\r\n     */\r\n    function increaseAllowance(address _spender, uint256 _addedValue)\r\n        public\r\n        returns (bool)\r\n    {\r\n        _approve(\r\n            _msgSender(),\r\n            _spender,\r\n            _allowances[_msgSender()][_spender].add(_addedValue)\r\n        );\r\n        return true;\r\n    }\r\n\r\n    /**\r\n     * @dev Atomically decreases the allowance granted to `spender` by the caller.\r\n     *\r\n     * This is an alternative to {approve} that can be used as a mitigation for\r\n     * problems described in {BEP20-approve}.\r\n     *\r\n     * Emits an {Approval} event indicating the updated allowance.\r\n     */\r\n    function decreaseAllowance(address _spender, uint256 _subtractedValue)\r\n        public\r\n        returns (bool)\r\n    {\r\n        _approve(\r\n            _msgSender(),\r\n            _spender,\r\n            _allowances[_msgSender()][_spender].sub(\r\n                _subtractedValue,\r\n                \"HYT: decreased allowance below zero\"\r\n            )\r\n        );\r\n        return true;\r\n    }\r\n\r\n    /**\r\n     * @dev Destroys `_amount` tokens from the caller.\r\n     */\r\n    function burn(uint256 _amount) public virtual {\r\n        _burn(_msgSender(), _amount);\r\n    }\r\n\r\n    /**\r\n     * @dev Moves tokens `amount` from `sender` to `recipient`.\r\n     *\r\n     * This is internal function is equivalent to {transfer}, and can be used to\r\n     * e.g. implement automatic token fees, slashing mechanisms, etc.\r\n     *\r\n     * Emits a {Transfer} event.\r\n     *\r\n     * Requirements:\r\n     *\r\n     * - `sender` cannot be the zero address.\r\n     * - `recipient` cannot be the zero address.\r\n     * - `sender` must have a balance of at least `amount`.\r\n     */\r\n    function _transfer(\r\n        address _sender,\r\n        address _recipient,\r\n        uint256 _amount\r\n    ) internal {\r\n        require(_sender != address(0), \"DMST: transfer from the zero address\");\r\n        require(_recipient != address(0), \"DMST: transfer to the zero address\");\r\n\r\n        _balances[_sender] = _balances[_sender].sub(\r\n            _amount,\r\n            \"DMST: transfer _amount exceeds balance\"\r\n        );\r\n        _balances[_recipient] = _balances[_recipient].add(_amount);\r\n        emit Transfer(_sender, _recipient, _amount);\r\n    }\r\n\r\n    /**\r\n     * @dev Destroys `amount` tokens from `_account`, reducing the\r\n     * total supply.\r\n     *\r\n     * Emits a {Transfer} event with `to` set to the zero address.\r\n     *\r\n     * Requirements\r\n     *\r\n     * - `_account` cannot be the zero address.\r\n     * - `_account` must have at least `_amount` tokens.\r\n     */\r\n    function _burn(address _account, uint256 _amount) internal {\r\n        require(_account != address(0), \"DMST: burn from the zero address\");\r\n\r\n        _balances[_account] = _balances[_account].sub(\r\n            _amount,\r\n            \"DMST: burn amount exceeds balance\"\r\n        );\r\n        _totalSupply = _totalSupply.sub(_amount);\r\n        emit Transfer(_account, address(0), _amount);\r\n    }\r\n\r\n    /**\r\n     * @dev Sets `_amount` as the allowance of `spender` over the `_owner`s tokens.\r\n     *\r\n     * This is internal function is equivalent to `approve`, and can be used to\r\n     * e.g. set automatic allowances for certain subsystems, etc.\r\n     *\r\n     * Emits an {Approval} event.\r\n     *\r\n     * Requirements:\r\n     *\r\n     * - `_owner` cannot be the zero address.\r\n     * - `_spender` cannot be the zero address.\r\n     */\r\n    function _approve(\r\n        address _owner,\r\n        address _spender,\r\n        uint256 _amount\r\n    ) internal {\r\n        require(_owner != address(0), \"DMST: approve from the zero address\");\r\n        require(_spender != address(0), \"DMST: approve to the zero address\");\r\n\r\n        _allowances[_owner][_spender] = _amount;\r\n        emit Approval(_owner, _spender, _amount);\r\n    }\r\n}\r\n",
  "sourcePath": "D:\\Work\\Work_2021\\2021_12\\Hunter_blockchain\\DearMonster\\contracts\\DMSToken.sol",
  "compiler": {
    "name": "solc",
    "version": "0.8.4+commit.c7e474f2.Emscripten.clang"
  },
  "schemaVersion": "3.4.4",
  "updatedAt": "2022-01-05T03:56:17.016Z",
  "networkType": "ethereum",
  "devdoc": {
    "kind": "dev",
    "methods": {
      "allowance(address,address)": {
        "details": "get allowance spender by owner",
        "params": {
          "_owner": "owner of token",
          "_spender": "account to be approved."
        }
      },
      "approve(address,uint256)": {
        "details": "approve spender by owner",
        "params": {
          "_amount": "amount to transfer",
          "_spender": "account to be approved"
        }
      },
      "balanceOf(address)": {
        "details": "See balance of account."
      },
      "burn(uint256)": {
        "details": "Destroys `_amount` tokens from the caller."
      },
      "decimals()": {
        "details": "Returns the token decimals."
      },
      "decreaseAllowance(address,uint256)": {
        "details": "Atomically decreases the allowance granted to `spender` by the caller. This is an alternative to {approve} that can be used as a mitigation for problems described in {BEP20-approve}. Emits an {Approval} event indicating the updated allowance."
      },
      "increaseAllowance(address,uint256)": {
        "details": "Atomically increases the allowance granted to `spender` by the caller. This is an alternative to {approve} that can be used as a mitigation for problems described in {BEP20-approve}. Emits an {Approval} event indicating the updated allowance."
      },
      "name()": {
        "details": "Returns the token name."
      },
      "symbol()": {
        "details": "Returns the token symbol."
      },
      "totalSupply()": {
        "details": "See total supply of token."
      },
      "transfer(address,uint256)": {
        "details": "transfer token from msg.sender to recipient",
        "params": {
          "_amount": "amount of token to transfer",
          "_recipient": "address of account to receive token,                   where it cannot be zero"
        }
      },
      "transferFrom(address,address,uint256)": {
        "details": "transfer token from _sender to _recipient and update allowance"
      }
    },
    "version": 1
  },
  "userdoc": {
    "kind": "user",
    "methods": {},
    "version": 1
  }
}